:100000003BC0A7C154C053C052C051C050C04FC024
:100010004EC04DC04CC04BC04AC049C048C047C08C
:1000200046C045C044C00902120001010080190900
:10003000040000000000000012011001FF00000891
:10004000C016DC050401010200010E035500530037
:1000500042006100730070001C0377007700770096
:100060002E00660069007300630068006C002E00BB
:10007000640065000403090411241FBECFE5D4E029
:10008000DEBFCDBF10E0A0E6B0E0E8EFF1E102C0D6
:1000900005900D92A236B107D9F710E0A2E6B0E0C4
:1000A00001C01D92AA3AB107E1F793D8A3C8A8CF1F
:1000B000CF93DF9360918800635067FD14C0209157
:1000C00085008CE090E0821B9109EC01C457DF4F62
:1000D000209184002D3209F45EC08091620087FD7A
:1000E00081C0109288008091600084FF47C06091B9
:1000F00061006F3F09F442C0693058F16850609365
:1001000061008091780098E889278093780068E002
:100110002091620027FD84C0809186009091870025
:1001200026FF6AC0FC01262FA9E7B0E034913D9379
:1001300031962150D9F7262F215030E02F5F3F4FC5
:10014000280F391F3093870020938600C62FCC5F7D
:100150000BC0109261008091780098E88927809305
:1001600078006623A9F6C4E089E790E0EED0CC30B1
:1001700019F08FEF80936100C093600094E186B323
:10018000837031F49150D9F7109289001092830056
:10019000DF91CF910895683009F0A3CF23EC20932D
:1001A00078002AE520936000109262002881207672
:1001B00061F53A811092810029812223E9F510929C
:1001C000820021E830E082E03093870020938600AF
:1001D0009F81992321F49E81981708F4892F809399
:1001E00061007FCFCE0128D78F3FA9F1882309F482
:1001F00078CF1092610075CFDC01262FE9E7F0E09F
:100200003D9131932150E1F796CFCE01DBD48F3F62
:10021000F9F6988197FD29C090E890936200DFCFAE
:1002200089E790E092D6682F893008F467C08FEF95
:1002300080936100CEE1A0CF253089F02630B9F05F
:10024000283091F12930A1F12A3009F447C021E882
:1002500030E080E0B9CF8EE18093600042CF3093F0
:10026000890021E830E080E0AFCF8E81D5CFFC015E
:10027000E257FF4F208181579F4FFC0180818130E1
:1002800029F18230D9F0833029F080E090E4909316
:1002900062009ECF222331F584E790E0909387009F
:1002A0008093860084E0F2CF2BE830E081E08CCFB1
:1002B00030938B0021E830E080E086CF86E290E04A
:1002C000909387008093860082E1E0CF88E390E0FE
:1002D000909387008093860082E1D8CF21E830E0B8
:1002E00081E072CF213069F0223079F68AE490E023
:1002F00090938700809386008EE0C8CFC82FCC5F94
:1003000033CF88E590E090938700809386008CE15E
:10031000BDCF85B7836085BF8BB780648BBF0895E1
:10032000A82FB92F80E090E041E050EA609530E0DE
:1003300009C02D9182279795879510F084279527DE
:10034000305EC8F36F5FA8F30895EADF8D939D9345
:100350000895CF93CFB7CF93C395B09BE9F7B09BE8
:1003600009C0B09B07C0B09B05C0B09B03C0B09B49
:1003700001C0A1C0DF93C0918500DD27C457DF4FC6
:10038000B09B02C0DF91EBCF2F930F931F9306B367
:100390002FEF00FB20F94F933F9316B34FEF012748
:1003A00000FB21F93BE031C04E7F012F16B32160E5
:1003B00028C0102F4D7F2260000006B329C04B7F5C
:1003C0002460012F000016B32BC016B3477F2860AE
:1003D0002AC04F7E06B320612CC04F7D16B3206229
:1003E0002FC04F7B06B3206432C0422706B3499327
:1003F0004FEF0000102710FB20F916B31370C9F15E
:10040000297F91F2012700FB21F906B3237F89F2AE
:10041000315058F1102710FB22F916B3277E79F2DC
:10042000012700FB23F92F7C81F206B3102710FB74
:1004300024F92F7971F200C016B3012700FB25F9CA
:100440002F7359F200C006B3102710FB26F9223093
:1004500040F200C016B3012700FB27F9243028F62C
:100460004F77206816B30000F9CF10E41ABF0027B9
:1004700017C03B503195C31BD04010E41ABF088110
:10048000033CE9F00B34D9F0209183001981110F5E
:100490001213EDCF093641F10D3211F0013E39F75B
:1004A00000938A003F914F911F910F912F91DF91FF
:1004B000CAB7C6FD51CFCF91CFBFCF91189520912C
:1004C0008A00222379F310918800112311F534302A
:1004D00012F13093880020938400109185003BE056
:1004E000311B3093850017C00091880001308CF4D7
:1004F0000AE53091600034FD10C000936000C8E749
:10050000D0E00FC02795A8F45150A9F4220F0000A5
:10051000F9CF4AE503C042ED01C0432FC4E1D0E06A
:1005200032E017B31360C09A17BB08B320E413E09E
:100530005F93012756E008BB279520F4515021F422
:10054000220FF9CF012756E000003B5A08BBD0F23A
:10055000279528F4515029F4220F0000F9CF0127E4
:1005600056E0279508BB20F4515021F4220FF9CF13
:10057000012756E02991332308BB21F60C7F109107
:100580008900110FC651D04008BB11F010938300B1
:1005900010E41ABF016017B31C7F402F4C7F5F919E
:1005A00000C000C008BB17BB48BB7CCF582F48E039
:1005B00080E02091A70057FD14C0C398550F880F05
:1005C000B4998F5FC59A32B792B7931B9217E0F335
:1005D000C59832B792B7931B9217E0F3415059F781
:1005E0000895C39AEBCF8FB9779BFECF8FB1089553
:1005F000DC01CB0121E1B695A795979587952A95C2
:10060000D1F72091A6002817D9F08093A600E09199
:10061000A300F091A4008DE40995E091A300F0916E
:10062000A40080E00995E091A300F091A4008091DE
:10063000A6000995E091A300F091A40080E009953F
:1006400008958091A5008DB98091A2008EB908957A
:100650008823B1F08830E0F526ED32E03093A40035
:100660002093A300843021F18530D0F0863029F129
:10067000863030F18730C1F483E08093A70008957D
:1006800083EF92E09093A4008093A30081E0809395
:10069000A70082E58093A50081E08093A2000895E1
:1006A000823091F0833041F080EC8093A700089570
:1006B00088E18093A700089580E38093A7000895C0
:1006C0008CE08093A700089580E68093A7000895AA
:1006D00023EF32E03093A4002093A3001092A200F5
:1006E00091E09093A700893041F08A3050F488302F
:1006F00081F683E58093A500089582E58093A500A7
:1007000008958B3021F08C3021F69093A20081E582
:100710008093A500089522B79091A70082B7821B0D
:100720008917E0F3089587B38C6287BBC298C59898
:1007300022B79091A70082B7821B8917E0F3C29A73
:1007400022B782B7821B8917E0F3C2988091A30079
:100750009091A40022E0833F920719F01092A60026
:1007600008958091A5008DB98091A2008EB9109254
:10077000A600089587B3837D87BB88B3837D88BB3C
:100780001DB80895CF93DF93C0E2E091A300F091EC
:10079000A4008CEA0995E091A300F091A40083E500
:1007A0000995E091A300F091A40080E00995D82F6D
:1007B000E091A300F091A40080E00995D33549F1C0
:1007C0001DB822B79091A70082B7821B8917E0F36A
:1007D000C29A22B782B7821B8917E0F3C29822B768
:1007E00082B7821B8917E0F3E091A300F091A40087
:1007F00082E0E33FF80731F0C15059F681E0DF9124
:10080000CF9108958091A5008DB98091A2008EB9F5
:10081000F3CF80E0DF91CF910895CF92DF92EF92F6
:10082000FF926B017C01E4DE8C2D8170880F880FB4
:10083000880FE091A300F091A40080620995D70190
:10084000C60139E0B695A795979587953A95D1F762
:10085000E091A300F091A4000995D701C601B695D7
:10086000A79597958795E091A300F091A40009952D
:10087000E091A300F091A40080E00995FF90EF9033
:10088000DF90CF900895CF92DF92EF92FF920F9377
:100890001F93CF93DF930F92CDB7DEB76B017C012F
:1008A000142F2983A5DE8C2D8170880F880F880F67
:1008B000E091A300F091A40080640995D701C601DE
:1008C00059E0B695A795979587955A95D1F7E091F8
:1008D000A300F091A4000995D701C601B695A7958C
:1008E00097958795E091A300F091A4000995E09178
:1008F000A300F091A400812F09952981222399F06A
:100900001F37E1F002B71EE1C701B60186DF8F375E
:1009100051F482B7801B8D3310F002B711501123B0
:1009200099F781E001C080E00F90DF91CF911F9196
:100930000F91FF90EF90DF90CF9008958FE0ABD0B4
:1009400080E0F2CFCF92DF92EF92FF920F931F934E
:10095000CF93DF930F92CDB7DEB76B017C01498354
:1009600047DEE091A300F091A4008CE40995D70143
:10097000C60129E0B695A795979587952A95D1F751
:10098000E091A300F091A4000995D701C601B695A6
:10099000A79597958795E091A300F091A4000995FC
:1009A000E091A300F091A40080E0099549814F3FB8
:1009B000E1F002B71EE1C701B6012FDF8F3F99F4C6
:1009C00082B7801B8D3310F002B71150112399F7B5
:1009D00081E00F90DF91CF911F910F91FF90EF90E9
:1009E000DF90CF90089580E0F4CF8FE054D080E086
:1009F000F0CF1F93CF93DF930F92CDB7DEB7182FB1
:100A0000E091A300F091A40080EA99830995E09118
:100A1000A300F091A4009981892F0995E091A3008A
:100A2000F091A400812F0995E091A300F091A4001A
:100A300080E009950F90DF91CF911F9108951F934A
:100A4000CF93DF9300D0CDB7DEB7182FE091A3008E
:100A5000F091A40080EC6A8399830995E091A3004A
:100A6000F091A4009981892F0995E091A300F0915C
:100A7000A400812F0995E091A300F091A4006A8160
:100A8000862F09958EE107D080E00F900F90DF91BF
:100A9000CF911F910895882349F030E022B792B793
:100AA000921B9C33E0F33F5F3817C1F70895BD9A5E
:100AB000BB98C39A50E217D05A95E9F70895AC0154
:100AC00088E605D0842F03D089E601D0852F0FD08A
:100AD00028E030E0382780FB869506D02A95D1F7AC
:100AE00030FB02D000D06894BB98C39A16F0C3982C
:100AF000BB9AE091A800F091A9003197F0F7C59A50
:100B0000E6B3E3FBE091A800F091A9003197F0F77C
:100B1000C598089520ECE7DF46F42A95E1F780E0D8
:100B20002AE1E5DF2A95E9F7DECF28E030E0DBDFD8
:100B3000869587F938272A95D1F7D5DF27F9322707
:100B400072F3D1DFD0CFDB01742FB9DF84E2BFDFD6
:100B5000E1DF8D937A95D1F70895DB01742FAFDF34
:100B600083EFB5DF8DE1B3DF84E6B1DF8D91AFDFD9
:100B700082E7ADDFCFDF8078D9F77A9589F70895DE
:100B8000F9DDA99A9A990AC085E062DD10926400A5
:100B9000A998C9DDF7DD813059F00895809163008F
:100BA00057DD10926400A998BEDDECDD8130A9F715
:100BB000E1DDA99A85E04CDD10926400A998B3DDCF
:100BC000E1DD0895CF93DF93EC018981813089F1D4
:100BD000823009F4B0C0833009F463C08430A1F1DD
:100BE000873009F483C0853009F412C1863009F4D6
:100BF000A6C0883009F4E1C0893009F40EC18A30FA
:100C000009F43DC18B3009F46DC18C3009F47FC10A
:100C10008D3009F491C18E3009F493C18F3009F4FD
:100C20000DC1803109F432C18F3709F450C180E021
:100C30002FC09A9B58C0809163000ADD1092640017
:100C4000A99871DD80E024C080916400882391F42C
:100C50003B8120E08A8190E0822B932BAA2797FD8D
:100C6000A095BA2F80936D0090936E00A0936F00B3
:100C7000B09370003F8120E08E8190E0822B932B17
:100C8000909372008093710082E0809373008FEFE5
:100C900025E630E03093870020938600DF91CF91E6
:100CA0000895E091A300F091A4008A8109958093B2
:100CB0006500E091A300F091A4008B8109958093D9
:100CC0006600E091A300F091A4008C8109958093C7
:100CD0006700E091A300F091A4008D8109958093B5
:100CE000680084E0D5CF85E0B3DCA8CF80916400B4
:100CF000882391F43B8120E08A8190E0822B932B22
:100D0000AA2797FDA095BA2F80936D0090936E004F
:100D1000A0936F00B09370003F8120E08E8190E03F
:100D2000822B932B909372008093710083E08093C9
:100D300073008FEFADCF1EDDA99A80E0A9CF80911F
:100D40006400882391F43B8120E08A8190E0822B2B
:100D5000932BAA2797FDA095BA2F80936D009093AF
:100D60006E00A0936F00B09370003C818D81282F9E
:100D70002F702093760090E0807F907082959295FE
:100D8000907F9827807F9827830F911D90937500FF
:100D90008093740020FF02C0809377003F8120E0A1
:100DA0008E8190E0822B932B909372008093710040
:100DB00081E0809373008FEF6BCF80916400882374
:100DC00091F43B8120E08A8190E0822B932BAA272B
:100DD00097FDA095BA2F80936D0090936E00A0931D
:100DE0006F00B09370001092750010927400109212
:100DF00076003F8120E08E8190E0822B932B9093B0
:100E000072008093710084E0809373008FEF40CF75
:100E1000B7DE8093650081E03BCF81E08093640082
:100E20008A819B81AC81BD8180936D0090936E001F
:100E3000A0936F00B093700080E02ACF3B8120E048
:100E40008A8190E0822B932BAA2797FDA095BA2F39
:100E500080936D0090936E00A0936F00B09370002C
:100E60003F8120E08E8190E0822B932B9093720043
:100E70008093710085E0809373008FEF09CF8A81A2
:100E8000809363001092650081E002CF3B8120E0F7
:100E90008A8190E0822B932BAA2797FDA095BA2FE9
:100EA00080936D0090936E00A0936F00B0937000DC
:100EB0003F8120E08E8190E0822B932B90937200F3
:100EC0008093710086E0809373008FEFE1CE81E024
:100ED000809365001092660010926700109268007F
:100EE00084E0D6CE3B8120E08A8190E0822B932B58
:100EF0009093A9008093A800C29ABA9A83E0CBDDB0
:100F0000C298A99880E1C7DDD2DD80E0C1CE80EC37
:100F1000DEDD80E0DCDD8AE0BEDDC29A85E0BBDD9F
:100F2000C29885E0B8DD87B3837D87BB88B3837DB6
:100F300088BBA99A80E0ACCEEDDD8093650081E0AE
:100F4000A7CE8A81C4DD80E0A3CEEF92FF920F93FB
:100F50001F93CF93DF93482F792FF62E8091730044
:100F6000982F9250923068F0853009F449C0FF24E0
:100F7000FA948F2DDF91CF911F910F91FF90EF90F9
:100F80000895662399F100916D0010916E002091F3
:100F90006F0030917000C42FD72FEE241DC0C80100
:100FA00028DD888300916D0010916E0020916F0004
:100FB000309170000F5F1F4F2F4F3F4F00936D0018
:100FC00010936E0020936F0030937000E39421968D
:100FD000EF1449F080917300823009F7C901B8011C
:100FE0001CDC8883DFCF87E08F1518F21092730026
:100FF0008F2DDF91CF911F910F91FF90EF9008956A
:1010000080916D0090916E00642F4F2D9CDD80913A
:101010006D0090916E00A0916F00B09170008F0DE7
:10102000911DA11DB11D80936D0090936E00A09342
:101030006F00B09370009DCFFF920F931F93CF93DB
:10104000DF93282F792FD62F30917300313071F034
:10105000343061F0363009F48EC0FF24FA948F2DBD
:10106000DF91CF911F910F91FF900895DD2309F437
:10107000AEC080916D0090916E00A0916F00B09114
:101080007000022F172FC0E0FF2451C02091740080
:1010900030917500BC01CD01F80140812115310569
:1010A00009F04FC021E0EFDB809171009091720058
:1010B000019790937200809371000097E9F4109269
:1010C00073008091760081FF39C02091770030E075
:1010D00080917400909175002817390779F160911B
:1010E0006D0070916E0080916F0090917000F8011A
:1010F000408128DCFF24F39480916D0090916E0074
:10110000A0916F00B09170000196A11DB11D809358
:101110006D0090936E00A0936F00B0937000CF5F4E
:101120000F5F1F4FCD1709F49ACF30917300313004
:1011300009F4ACCFF801608182DCB6CFFF24F394D0
:10114000DBCF20E0A0DB8091770081508093770097
:10115000882309F0A9CF60916D0070916E00809195
:101160006F0090917000F8014081ECDB8091740079
:101170008093770099CF80916D0090916E00622FDF
:101180004D2FEBDC80916D0090916E00A0916F006F
:10119000B09170008D0F911DA11DB11D80936D0048
:1011A00090936E00A0936F00B093700080917100D7
:1011B000909172008D1B9109909372008093710041
:1011C000009729F410927300FF24F39448CFFF2472
:1011D00046CF12BA18BA8BEF81BB8FEF87BB17BA15
:1011E00083E084BB9EEF95BB83BF93D8789460D790
:0811F0005FD7FDCFF894FFCF9B
:0211F8005AFF9C
:00000001FF
