:020000040800F2
:20000000D02A002099A50208DD930208E1930208E5930208E5930208E59302080000000000
:2000200000000000000000000000000049A802084DA8020800000000C1840108916B010873
:20004000DF4F01085DA8020861A8020865A8020869A802086DA8020871A8020875A80208AC
:2000600079A802087DA8020881A8020885A8020889A802088DA8020891A8020895A80208B8
:2000800099A802089DA80208B1530108A5A80208A9A80208ADA80208B1A80208B5A80208DE
:2000A000B9A80208BDA80208C1A80208C5A80208C9A80208CDA80208D1A80208D5A8020878
:2000C000D9A80208DDA80208E1A80208E5A80208E9A80208EDA80208F1A80208F5A8020858
:2000E000F9A80208FDA8020801A9020805A90208215401080DA9020811A9020815A9020870
:2001000019A902081DA9020821A9020825A9020829A902082DA902082F5C010835A902085F
:2001200039A902083DA9020841A9020845A9020849A9020865D4010851A9020855A90208AD
:2001400059A902085DA9020861A9020871D4010869A902086DA9020871A9020869540108FB
:2001600079A902087DA9020881A9020885A9020889A90208A9D4010891A9020895A9020869
:2001800099A90208FFFFFFFFFFFFFFFFFFFFFFFFFFFFFFFFFFFFFFFFFFFFFFFFFFFFFFFF2F
:2001A000FFFFFFFFFFFFFFFFFFFFFFFFFFFFFFFFFFFFFFFFFFFFFFFFFFFFFFFFFFFFFFFF5F
:2001C000FFFFFFFFFFFFFFFFFFFFFFFFFFFFFFFFFFFFFFFFFFFFFFFFFFFFFFFFFFFFFFFF3F
:2001E000FFFFFFFFFFFFFFFFFFFFFFFFFFFFFFFFFFFFFFFFFFFFFFFFFFFFFFFFFFFFFFFF1F
:20020000000000000000000000000000000000004A2D4C696E6B20563920636F6D70696C86
:200220006564204E6F7620323820323031342030393A33343A353900436F7079726967681A
:200240007420323030332D32303132205345474745523A207777772E7365676765722E637B
:200260006F6D000000000000000000000000000000000000000000000000000000000000A2
:20028000FFFFFFFFFFFFFFFFFFFFFFFFFFFFFFFFFFFFFFFFFFFFFFFFFFFFFFFFFFFFFFFF7E
:2002A000FFFFFFFFFFFFFFFFFFFFFFFFFFFFFFFFFFFFFFFFFFFFFFFFFFFFFFFFFFFFFFFF5E
:2002C000FFFFFFFFFFFFFFFFFFFFFFFFFFFFFFFFFFFFFFFFFFFFFFFFFFFFFFFFFFFFFFFF3E
:2002E000FFFFFFFFFFFFFFFFFFFFFFFFFFFFFFFFFFFFFFFFFFFFFFFFFFFFFFFFFFFFFFFF1E
:200300002DE9FF5F9DE8001C0124A103A501264E264FDFF89C805FF4802E1AF8010B1BF84B
:20032000012B120210430822082B48BF1A46440834BFA8F81A10A8F81810440A34BF75835C
:20034000358300BF00BF5B1E7D83BEF1010E24D0D8F81040A408F8D23D83BEF1010E1CD03C
:20036000D8F81040A408F8D33C69240A4FEA3000521EDCD1000E0CF8010B002BCBD1039C09
:2003800014F007041EBFC4F10804E0400CF8010C7583BDE8FF5F002070473D837583BDE850
:2003A000FF5F01207047000000000240000802400004024000000000000000000000000035
:2003C0002DE9FF5FDDF838E07F4C2468240009D000F0DEFABDE8FF9F2DE9FF5F7B4ED6F852
:2003E00000E0F1E79DE8001C0124A501A600784F78493C6844F480543C60BEF1000F43D48A
:2004000090110020210600087B0201207D0201207F020120810201208302012000000000C2
:20042000000000000000000000000000850201208702012000000000890201208B02012010
:200440008D0201208D0201208D0201208D0201208D0201208D0201208D0201208D0201201C
:200460008D0201208D0201208D0201208D0201208D0201208D0201208D0201208D020120FC
:200480008D0201208D0201208D0201208D0201208D0201208D0201208D0201208D020120DC
:2004A0008D0201208D0201208D0201208D0201208D0201208D0201208D0201208D020120BC
:2004C0008D0201208D0201208D0201208D0201208D0201208D0201208D0201208D0201209C
:2004E0008D0201208D0201208D0201208D0201208D0201208D0201208D0201208D0201207C
:200500008D0201208D0201208D0201208D0201208D0201208D0201208D0201208D0201205B
:200520008D0201208D0201208D0201208D0201208D0201208D0201208D0201208D0201203B
:200540008D0201208D0201208D020120910501208D0201208D0201208D0201208D02012014
:200560008D0201208D0201208D0201208D0201208D0201208D0201208D0201208D020120FB
:200580008D02012000F002F800F03AF80AA090E8000C82448344AAF10107DA4501D100F060
:2005A0002FF8AFF2090EBAE80F0013F0010F18BFFB1A43F001031847E421000004220000EB
:2005C000103A24BF78C878C1FAD8520724BF30C830C144BF04680C607047000000230024A5
:2005E00000250026103A28BF78C1FBD8520728BF30C148BF0B6070471FB51FBD10B510BDD7
:2006000000F063F81146FFF7F7FF01F06BFF00F081F803B4FFF7F2FF03BC00F085F80000BE
:200620001E491F4A4FF000004FF4E05408C908C200F10100A042F9DB1A490A684B688C6875
:2006400082EA030282EA040217494FF000004FF4E0540B6883EA020308C100F10100A0421F
:20066000F7DB4FF000014FF000024FF000034FF000040E4880470E480047FEE7FEE7FEE739
:20068000FEE7FEE7FEE7FEE7FEE7FEE7FEE7000008480949094A0A4B70470000000400080A
:2006A00000000120107AFF1F00040120C10A0120850101209001002090110020900900208E
:2006C00090090020704770477047754600F028F8AE4605006946534620F00700854618B086
:2006E00020B5FFF7D5FFBDE820404FF000064FF000074FF000084FF0000B21F00701AC462F
:20070000ACE8C009ACE8C009ACE8C009ACE8C0098D4670470446AFF300802046FFF779FF9B
:20072000004870472C01002001491820ABBEFEE7260002007047000030B50546002451B168
:20074000012908BF4FF4807405D002290CBF4FF400744FF4407400F061F8082818BF30BDBB
:200760000F4B186820F440701860186820431860186820F0F8001860186845F00201084305
:200780001860186840F48030186000F047F8196821F002011960196821F0F801196030BDD7
:2007A000103C02400248016841F0004101607047103C024030B50C46054600F02FF8082817
:2007C00018BF30BD0A4B186820F440701860186840F400701860186840F0010018602C60F3
:2007E00000F01CF8196821F00101196030BD0000103C02400548006810F0004F08BF7047EB
:20080000034904480160044901607047103C024023016745043C0240AB89EFCD81B0082051
:200820008DF8000001462048026812F4803F18BF012110D1026812F0100F18BF05210AD118
:20084000026812F0EF0F18BF062104D1026812F0020F18BF07218DF800109DF8001001297B
:200860001DD10268082112F4803F18BF012110D1026812F0100F18BF05210AD1026812F089
:20088000EF0F18BF062104D1026812F0020F18BF07218DF800109DF800100129E1D09DF861
:2008A000000001B0704700000C3C02402DE9F001002201255FF00306D1F800C005FA02F322
:2008C0000CEA030C9C4533D107684FEA420C06FA0CF4A74307600F79D0F8008007FA0CF713
:2008E00047EA080707600F79012F18BF022F14D18768A74387604F79D0F8088007FA0CF7D0
:2009000047EA08078760476827EA0303436043688F799740BFB23B434360C368A343C360F7
:20092000CB7903FA0CF3D0F80CC043EA0C03C360521C102AC0D3BDE8F00170474183704781
:2009400001837047426951404161704702494CF6CC400860704700000030004002494AF614
:20096000AA200860704700000030004001494860704700000030004001498860704700001C
:20098000003000400149086070470000003000402DE9F04F4FF0A04083B04169806908408C
:2009A000009010F4805F0ED001F0CAFA01F03CFEFE48016800291CBF084680474FF480512A
:2009C0004FF0A0404161009810F4006F0AD0F848016800291CBF084680474FF400614FF0CC
:2009E000A0404161009810F0004F0AD0F148016800291CBF084680474FF000414FF0A0405A
:200A00004161009810F4005F12D0EB48016821F003010160E948016841F4807101600168BB
:200A200041F4806101604FF0A0404FF400514161009810F0080F09D0E148016800291CBFCC
:200A40000846804708214FF0A04041610098DD4C10F0100F4FF001070CD04FF0A042D16939
:200A600001F00F00C1F3434102292FD0062918BF106A22D00098DFF850E3D44B10F4002FAE
:200A800078D0AEF104000168DEF800004FF0000208405FEA104C6DD0CD4DDFF83883DFF83E
:200AA000389300202CFA02F111F0010F2FD007FA02F110462CEA010C2CE0C84951F820101F
:200AC000002918BF0220D5D08847D3E7916921F01001916104EB40110968C1F38141012967
:200AE00007D0BE4951F82010002918BF0420C1D0EAE7BB4DBB49AF6051F8201000F010FF86
:200B00000020A860B6E70020022A03D2CAE7521C022AC7D308EB40110E6816F0020F0CD05D
:200B200004EB4016D6F800A0CAF3814ABAF1010F21D00E6846F002060E600E68D1F800A0CD
:200B400006F001060AF0080A56EA0A063DD004EB4016D6F800A0CAF3814ABAF1010F30D039
:200B600055F820A003EB401B4AF4002ACBF800A0F8B122E02CE055F820A003EB401B4AF409
:200B8000002ACBF800A0D9F800A0CAF30D2A1AF0010FD6F800A014BF4AF0805A4AF0005A60
:200BA000C6F800A0D6F800A04AF0044AC6F800A0BFE7186840F000501860306840F0044059
:200BC0003060086840F001000860BCF1000F9AD1009810F4802F7DD083490A68DEF8001099
:200BE0004FF0000811401FFA81F9B9F1000F71D0DFF8F8B17A4EDFF8C0A1002429FA08F011
:200C000010F0010F0AD0444607FA04F029EA000909E00024B8F1020F05D2EFE708F10108D9
:200C2000B8F1020FEAD30BEB4415286810F0020F39D0022028600AEB44100068C0F3814075
:200C4000012830D107FA04F00190F16808422AD044F0800020F080014FF0A040026922F462
:200C6000F86242EA811141F020010161016911F0200F18BF092105D0026912F0200F01D0CB
:200C8000491EF9D25A48776050F82420203850F82410204601F0BEFA002070600198F16858
:200CA00021EA0000F060286810F0400F28D00AEB44100168C1F38141012921D04D4951F8E0
:200CC0002410B9B1336807FA04F21A4212D04848776000E02EE050F82420204601F09AFADA
:200CE00000207060306808BB4348016821F0400101601BE0016841F0806101604020286043
:200D0000286810F0010F11D02F600AEB441077600068C0F38140012817D0304850F82410C3
:200D200000291CBF0820884700207060B9F1000F7FF46FAF009810F4004F35D02F480168AE
:200D4000C1F3814101290AD029E0294850F82420203850F82410204601F05CFAE4E701685E
:200D600011F4004F1BD04FF0A041496911F4001F5AD0194909680268C1F30D2101F0010102
:200D8000C2F3004291420AD1016811F0004F06D0174A00215160016841F0804101604FF0F1
:200DA000A0404FF402114161009829E0BC220120C0220120C42201200009005004080050FC
:200DC000C8220120000B00501C080050100B005034000020080B005008080050CC220120A8
:200DE00024000020FC00002018080050080900500C010020EC00002010080050200B0050A6
:200E000010F4801F04BF03B0BDE8F08F4FF480114FF0A04041611F4A1F49D0680B68C3F3CE
:200E20008143012B17D030E01C491D4A496841F4002111601B490968C1F30D2111F0010FBF
:200E4000016814BF41F0805141F000510160016841F00441A2E70B6813F4004F15D00B68E8
:200E600013F0004F11D00F4B1B68D1F800C0C3F30D2303F00103CCF3004C634505D10B6800
:200E800040F0020043F090430B60D06003B0BDE8F08F000024000020200900503400002097
:200EA000300B005008080050044A0029116814BF084321EA0000106070470000303802405D
:200EC0002F4882B0016841F0010101602D4900230B60026822F4102222F08072026000F15F
:200EE000040C294ACCF80020026822F4802202600A1D136001930093026842F48032026092
:200F0000026802F400320092019A521C0192009A1AB9019AB2F5A06FF2D1026812F4003FE1
:200F200008BF009327D0012200920A680A600A6842F400420A600A6842F4A0520A60134A1A
:200F4000CCF80020026842F080720260026812F0007FFBD00E4A40F203701060086820F01A
:200F600003000860086840F002000860086800F00C000828FAD108490648086002B0704725
:200F80000038024008380240103000240C3C4005003C02400000012008ED00E010B501F03A
:200FA00028FB10BD10F0800F2CD020F080011E4800EB4110026812F0004F03D0026842F059
:200FC0008042026041F0800121F080024FF0A0410B6923F4F86343EA821242F020020A6122
:200FE0000A6912F0200F18BF092305D00A6912F0200F01D05B1EF9D20168C1F381410129B3
:201000000DD908E0094901EB40100168C1F38141012998BF7047016841F080510160016828
:2010200021F400110160704700090050000B005030B48278838822F08001C07812F0800F79
:20104000234A00F003004FF0010C1AD014680CFA01FC44EA0C0CC2F800C08A0542EA80423E
:20106000C3F30A0313431B4A02EB41110B6001289CBF30BC7047086840F08050086030BC5D
:201080007047154CC3F30A0344F82130146801F110050CFA05FC44EA0C0CC2F800C00F4A45
:2010A00043EA804C02EB4112C2F800C0DFF830C043F400230CEB41110B6001289CBF30BC38
:2010C0007047106840F08050106030BC704700001C0800500009005034000020000B005052
:2010E000100B00500248016821F0010101607047240000200A4A4FF0A04140B1886B40F4D7
:2011000024108863106820F0020010607047106840F002001060886B20F40020886370471C
:201120000408005010B50B4C0B48A28801788A4200D9CAB21AB90749002018390871802073
:20114000216801F067F8216801442160A188081AA08010BD5C000020B822012010B5064CA1
:201160000020216800F0DCFB216801442160A188081AA08010BD00005C0000207047000045
:2011800010B4002210F0800F4FF0A04132D0414B20F08000D3F800C01CF4004F05D01B685A
:2011A000C3F38143012B08BF01220123DFF8E8C08340012ADCF8004024EA0303CCF80030F2
:2011C00003D18A6922F480128A61344901EB4010016811F0004F03D0016841F080410160B4
:2011E000016841F000610160016821F40041016010BC70472A4A136813F4004F08D0126859
:20120000C2F38142012A03D18A6922F400428A61DFF890C0DCF8002042F40072CCF800207A
:201220004A6912F0800F08BF40F2E73206D101E0521E03D34B6913F0800FF9D01A4901EBFC
:2012400040110A6812F0004F03D00A6842F080420A600A6842F000620A600A6822F400429D
:201260000A60124901EB4011086810F0020F08BF40F2E73006D101E0401E03D30A6812F07B
:20128000020FF9D0DCF8000040F48060CCF8000010BC70472009005024000020000900502F
:2012A000200B005004080050000B0050080B005010F0800F4FF0A04125D020F080021E48FD
:2012C00000EB4210036843F4004343F000630360036813F0004F03D0036843F0804303609F
:2012E00001239340154AD2F800C02CEA030313600068C0F38140012818BF7047886940F4C7
:201300008010886170470E4A02EB40100268C2F38142012A1EBF016841F4004141F00441C9
:2013200001D0016070478A6942F400428A61016841F40041F5E70000000900502400002016
:20134000000B00502DE9F047DFF844820646A8F1080580074FF0000AA5F1180424D500F0EB
:2013600045FF98F800004746C009FFF707FFF888A8803978C1F3411010B1012877D17DE05A
:2013800098F80120834FDFF810920C2A6FD2DFE802F0060C951C952B3B953F45526100F0A7
:2013A000E3FB33E0FFF7BEFE96E0002000F01AFC00285CD000F020FF386820B16169002927
:2013C00021D0082050E0484653E0012000F00AFC002873D000F010FF38680028F3D061692D
:2013E000002979D004203FE011F01F0F66D198F80200012140F08000207000F07F0000F07F
:2014000073FE00F0F9FE67E000F012FB78B3C9E711F01F0F52D15E481F3819E000F032FCEF
:2014200028B300F0E9FE386818B1616929B301201AE05A481DE001F01F0101293ED161780E
:20144000A9B198F80400A178884237D2544908442860A7E700F0DEFC48B100F0CDFE386895
:2014600030B1616949B1022001F0DCF834E025E04C48016809B1084680472DE011F01F00CE
:2014800004D0012805D0022818D111E000F0A9F813E000F0B5F8F8B900F0B4F8E0B900F07F
:2014A0009CF8C8B900F09BF8B0B900F0A4F804E000F091F880B900F099F868B998F80010C7
:2014C000090604D4B8F8060008B1002000E0802000F018FEA5F804A0700735D598F80000BE
:2014E000474600062ED4A88858B3FFF737FEA88838BB3878C0F34111F1B101291CD110F060
:201500001F0004D0012805D0022815D10EE000F051F810E000F05DF898B900F047F880B9B5
:2015200000F046F868B900F04FF804E000F03CF838B900F044F820B9802000F0E3FDA5F81A
:2015400004A001E000F05EFE300713D598F80000000606D5A888217908430BD0FFF7E2FD65
:2015600008E02078010605D500F07F002070002100F0BAFD700602D50020FFF713FD30069A
:2015800004D5BDE8F0478020FFF70CBDBDE8F0876400002018230120142301200C23012093
:2015A000200000201023012000207047002070470020704710B5002001F014F810BD10B59E
:2015C000002001F011F810BD10B5002001F00EF810BD0020704700207047002070470020D6
:2015E000704710B5012000F0FDFF10BD10B5012000F0FAFF10BD10B5012000F0F7FF10BD60
:2016000000207047002070472DE9F041364C4FF00008042819D02078042818BFBDE8F08146
:20162000FFF7C0F884F8008045F25550FFF7AAF90320FFF79BF94FF4FA70FFF79DF9FFF7AF
:201640008DF9BDE8F041FFF781B92849012000F067F9217831B101290AD0022917D003295F
:201660001DD001E001280FD084F80080BDE8F081FFF7C0F84FF4404060601D48A0600221C9
:201680002020FFF759F802202070BDE8F08102212820FFF751F803202070BDE8F0818610F2
:2016A0000025124F002E0DDD57F82510A068FFF781F8A068001DA0600A2000F09BFE6D1C30
:2016C000AE42F1DC6068801B60600028C8BFBDE8F08104202070C7F80080BDE8F041012279
:2016E0000249812000F096BD140000206C00002000000108704770477047704770477047A8
:201700007047704770477047704770477047704730B57848016841F0010101607648016848
:2017200021F4401141F400110160416821F480614160416A21F4706141F420614162816889
:2017400041F440118160C16821F4401141F48011C160016821F4400141F4000101604168AD
:2017600021F400614160416A21F4704141F420414162816841F440018160C16821F44001E9
:20178000C160016821F0407141F000710160416821F480514160416A21F4702141F4202103
:2017A0004162816841F040718160C16821F04071C1605248016841F080010160642000F044
:2017C00045FF4F4B186840F080001860642000F03DFF186820F0800018604FF4C87000F0E0
:2017E00035FF4FF0A043D86840F04000D860C82000F02CFF18694FF47A7C424C424D10F0D1
:20180000004F05D01CE000BFBCF1000F06D117E02068B0FBF5F000EB80004200ACF1010CF0
:20182000501E4AB100BF00BF00BF00BF00BF00BF00BF00BF401EF5D2186910F0004FE3D09F
:20184000186940F00100186118694FF47A7C10F0010F1AD02068B0FBF5F000EB80004200E4
:20186000ACF1010C501E4AB100BF00BF00BF00BF00BF00BF00BF00BF401EF5D2186910F0B7
:20188000010F18BFBCF1000FEAD11E2000F0DEFE986820F001009860986B20F400209863A5
:2018A0001A48016841F002010160D86820F4705040F41050D860D86840F08040D8604FF43D
:2018C0007A7000F0C3FE1248016841F00301016010480068002818BF08200F490843986191
:2018E0004FF0E0210820C1F80801986840F08100986030BD3038024000000240343802408E
:201900001438024000000020A08601000408005000080050C822012010380C8070470000A8
:201920002DE9F0013A4A02EB4012136813F4004F02BF0020BDE8F00170471268C2F38143EB
:201940004FF0A042012B1CBF136AC3F30A1C24D00CF10304032C13D92E4BC4F3800010B182
:201960001D6841F8045BB0EB940F09D21D6841F8045B1D68801C41F8045BB0EB940FF5D355
:20198000506910F0100FFBD0106A906940F010009061BDE8F001604670471F4B1F4D002611
:2019A0009B6873B1136AC3F30A1C1D4B03EB40131B681C4C23420CBF45F820C045F8206009
:2019C000C6E755F820C0BCF1000F1ED04A1E0021154C1CF0010F05D054F82010097802F8B1
:2019E000011F01215FEA5C030FD000BF54F8207001F101087F5C577054F82070891C5B1EEC
:201A000017F8087002F8027FF0D145F82060C0E7000B005000100050240000201C01002063
:201A2000100B00500000F87FFC000020704700007CB54148A0F120050178A0F1080411F06A
:201A40001F0102D0012970D15CE0C6783A483A4920383A4AC0788978082E66D2DFE806F06A
:201A60006504123F6565082C35482060122047E01178002959D018B1324820600A203FE071
:201A80003148FAE712780AB901284ED018B12F480090002008E02E48FAE7009A137813B140
:201AA00053881A440092401C8142F6D100980178D1B32060408823E01278AAB318B1254878
:201AC0000090002008E02448FAE7009A137813B153881A440092401C8142F6D1E6E71F4853
:201AE0000090002005E0009A13780BB11A440092401C8142F7D100980178A9B12060007836
:201B0000019005E001A9684600F02CF800280DD0A188019881420CD9114980B2A080097847
:201B2000491E084203D004E0FFE700207CBD0120287101207CBD000064000020B42201206F
:201B4000802201201D2301201C2301201E23012092220120202301201F230120222301209D
:201B6000B82201200020704770B51C481B4D0078A5F1080510F01F040AD01848A5F118017B
:201B8000174B4A780079012C06D0022C24D109E012481A3828601DE0F2B1897888421BD20D
:201BA000002015E000F08F04200605D504F00F064FF48030B04001E00120A0400AB92207D3
:201BC0000AD18A68024207D0C9680142E8D0012018802B60012070BD002070BD640000208E
:201BE000AC00002070B5264A0146A2F12004107810F01F031046408804D0012B28D0022B99
:201C000026D110E0012823D129B100F001FBE08840F0020005E0002000F0FAFAE08820F0FF
:201C20000200E08029E0127902F08F06320605D506F00F024FF48035954001E00125B54045
:201C400062782AB1320703D0A2682A4200D008B1002070BD29B1304600F054FAE068284336
:201C60000AE02069284208D13046FFF79BF93046FFF7DCFEE068A843E060012070BD0000A7
:201C8000640000202DE9F84F5C4F00200090387810F01F0F6FD1B8784FF000094FF0010B27
:201CA0004FF4803AA7F1200600287AD0544801783046C07809B901285DD008B1514C6BE07B
:201CC000514C69E06078022804D0042844D0052860D144E06179B87881423BD17070207934
:201CE000B0700020494A4A4903E000BF02F80090401C0B889842F9D30125B0460BFA05F0A7
:201D0000D8F80810084202D02846FFF739FAD8F808100AFA05F0084203D045F08000FFF77F
:201D20002FFA6D1C102DE9D34FF00110C8E902090120C8F81090FFF7D5F9E0794006B8F858
:201D4000060002D540F0010001E020F00100A8F806001FE060881EE0E07800901AE000987E
:201D6000C0B9A07800F08F05280605D505F00F010AFA01F002E03CE00BFA05F0B1680143F7
:201D80002046B160FFF754F92846FFF791FA284600F052F9207804442078002892D124E0EA
:201DA000FFE7C84686F8019001245D464FEA0A09B16805FA04F0084202D02046FFF7E0F9AF
:201DC000B16809FA04F0084203D044F08000FFF7D7F9641C102CEBD34FF00110C6E90208D9
:201DE0000020C6F81080FFF77DF9B8787178884202D00020BDE8F88F0120FBE76400002081
:201E0000B42201201E2301209222012020000020B62201202DE9FC5F444E00273D46307806
:201E2000BB4600F01F00B84601287DD1A6F120014878002875D03E48BA4602780846C078B2
:201E40000AB9012870D0894608B13A4C65E03A4C63E06078022804D0042809D005285AD107
:201E600017E0617999F80100814254D0608853E0A7783079E5784FF00008B8424BD1B07853
:201E8000A84248D12D484FF0010A10F807B0C55541E03079B8423ED1A07800F08F000190AC
:201EA000000605D5019800F00F014FF4803001E00199012088400090B078A84217D1D9F8F7
:201EC0000810009A20461143C9F80810D9F80C109143C9F80C10FFF7ABF80198FFF7E8F916
:201EE000019800F0A9F8009948EA010813E05D4511D1009918EA010F0DD1D9F80810009A61
:201F00009143C9F80810D9F80C109143C9F80C100198FFF735F9207804442078002898D1B0
:201F20005046BDE8FC9FFFE70020FAE764000020B42201201E2301209222012020000020F2
:201F40002A4910B400202A4A486008601060131F18602849086810F0004F4FF0904018BF76
:201F600008602549D1F800C01CF0004F18BF08601B21DFF888C0CCF80010DFF884C0CCF85A
:201F80000010DFF880C0DCF8004014F0004F18BFCCF80000DFF870C0DCF8004014F0004FAA
:201FA00018BFCCF8000019480160194801601948016821F4FE61016017494FF0011008604B
:201FC0000B201060032018601448402140F86C1C134940F8681C1349416713498167134992
:201FE000C16714491248086010BC70472400002014080050000B0050000900500809005052
:20200000080B0050200B00502009005028090050280B0050000800501C08005090000050B9
:202020004000100050001000600010007000100040000820100B005010F0800F08BF704720
:2020400020F08001012000FA01F22348036823EA02020260214800EB4110026812F0004F38
:2020600003D0026842F080420260026842F00062026041F0800121F080024FF0A0410B6994
:2020800023F4F86343EA821242F020020A610A6912F0200F18BF092205D00B6913F0200F2D
:2020A00001D0521EF9D20168C1F38141012918BF70470B490968C1F30D2111F0010F01685C
:2020C00014BF41F0805141F000510160016841F004410160704700002400002000090050B4
:2020E00008080050FEF75ABF002908BF704704490A6822F4FE6242EA00100860704700003B
:202100000008005010F0800F4FF0A04128D0334A20F0800002EB4012136813F0004F03D0D4
:20212000136843F080431360136843F4001313600A6920F0800022F4F86242EA801040F024
:2021400020000861086910F0200F14BF092070470A6912F0200F08BF7047401EF8D27047A2
:20216000DFF87CC0DCF8002042F40072CCF800204A6912F0800F08BF40F2E73306D101E0BD
:202180005B1E03D34A6912F0800FF9D0154901EB40110A6812F0004F03D00A6842F080424C
:2021A0000A600A6842F400120A600F4901EB4010016811F0020F08BF40F2E73106D101E0B9
:2021C000491E03D3026812F0020FF9D0DCF8000040F48060CCF800007047000000090050C0
:2021E00004080050000B0050080B005001490020FFF796BB6400002000221146802000F087
:2022000009B8000001490020FFF78ABBAC000020704700002DE9F00320F080036C4800EB9A
:20222000431CDCF8000010F4004004BFBDE8F0037047DCF80000C0F3814001280CBF0126B2
:202240000026644DD01C8408D5F804800127B8F1000F4FD1604850F8230000284AD0D5F8BC
:2022600000809F4017EA080F05D0002E02BF0020BDE8F0037047DFF8648148F8232044B37E
:20228000B4F1004FA4F1010307D300BF51F8044B40F8044B5B1EF9D21BE05C1C002C18DD21
:2022A000001F002413F0010F03D10C6840F8044F01245B1C5B100CD001EB8408A41CD8F80A
:2022C0000090C0F80490D8F8048040F8088F5B1EF2D1002E77D1286838432860DCF80000E6
:2022E00040F00060CCF800003D48016841F04001016068E0002A1CBF3A4800EB431004D0E8
:20230000D0F80080B2EB880FFAD8DFF8DC8042F4002008EB431840F00050C8F8000076B131
:2023200032480068C0F30D2010F0010FDCF800000CBF40F0005040F08050CCF80000DCF814
:20234000000040F00440CCF80000AAB3DFF8A080B4F1004FA4F1010028BF08EB033C06D375
:2023600051F8044BCCF80040401EF9D224E000F1010CBCF1000FD8BF4FF0000C08DD37EAF2
:20238000000C05D008EB033951F8044BC9F80040A0EB0C00B0F1FF3FC8BF08EB033C0BDD7D
:2023A00051F8044BCCF8004051F8044BCCF80040801EB0F1FF3FF3DC2EB9296807FA03F02D
:2023C00021EA00002860BDE8F0031046704700000009005024000020EC0000200C010020EF
:2023E0001008005018090050100900500808005000100050002808BF7047401E00BF00BF59
:2024000000BF00BF00BF00BF00BF00BF00BF00BF00BF00BF00BF00BF00BF00BF00BF00BFCC
:2024200000BF00BF00BF00BF00BF00BF00BF00BF00BF00BF00BF00BF00BF00BF00BF00BFAC
:2024400000BF00BF00BF00BF00BF00BF00BF00BF00BF00BF00BF00BF00BF00BF00BF00BF8C
:2024600000BF00BF00BF00BF00BF00BF00BF00BF00BF00BF00BF00BF00BF00BF00BF00BF6C
:2024800000BF00BF00BF00BF00BF00BF00BF00BF00BF00BF00BF00BF00BF00BF00BF00BF4C
:2024A00000BF00BF00BF00BF00BF00BF00BF00BF00BF00BF00BF00BF00BF00BF00BF00BF2C
:2024C00000BF00BF00BF00BF00BF00BF00BF00BF00BF00BF00BF00BF00BF00BF00288CD105
:2024E0007047000000F090F801210220FEF7DCFC334D32492846FEF7D9F932492846FEF78E
:20250000D5F929152846FEF71BFAE9142846FEF715FA2D48002641F2FF7C0168001D32685F
:2025200000687368484029490968484031464240083182EA0300D1E9004380EA0402BCF1AA
:20254000010CF5D142F6FF7056F82000504001D000BFFDE71E481F4900688860012000F060
:2025600051F82C4600F046F8E8B101221A498120FFF750FE4FF480612046FEF7E1F94FF4D2
:2025800000612046FEF7DAF9144D2846FFF732FF4FF480612046FEF7D5F94FF4006120465F
:2025A000FEF7D0F9F1E74FF480612046FEF7CAF941F28830FFF71EFFD4E700008C230120BA
:2025C0000004024094230120107AFF1F187AFF1FFC7F01208022012088230120F04902001F
:2025E00000F006B80020704700207047002070477047704702484078002800D00120704768
:2026000044000020FEF776BD054910B50020C870FFF7E6FFFFF782F9BDE81040FFF778B85C
:20262000440000207047000006484FF0011201780548C180002101704170C0E90221016167
:2026400070470000B32201204400002009490A4A0968B1FBF2F14843401E38BF704700BF6D
:2026600000BF00BF00BF00BF00BF00BF00BF401EF5D2704700000020A086010000000000FE
:20268000120100020000004066130101000101020301090220000101048032090400000270
:2026A000FFFFFF0507058102400001070501024000010000000001004000000000000000B7
:2026C0000000000000000000E51C0120450F01200912012001130120031301200513012082
:2026E00007130120091301200B1301200D1301200F130120F5120120F7120120F912012021
:20270000FB120120FD120120FF120120000000000000000000000000000000000000000029
:202720000000040309040E035300450047004700450052000E034A002D004C0069006E000C
:202740006B001A033000300030003000300030003100320033003400350036001C0343003A
:202760006F006E00660069006700750072006100740069006F006E000E034A002D004C0070
:2027800069006E006B0000000000000000040000010001000008000001000100BC230120E7
:2027A000000000206C000000C0010120282401206C00002024110000DC010120000E270743
:2027C0000000000000000000010203040607080900000000000000000000000000000000D1
:2027E000000000000000000000000000000000004000000000000000000000000000000099
:202800000000000000000000000000000000000000000000000000000000000000000000B8
:2028200000000000000000003700616635DB415C9D04CDEC3023743A62F9AC18DC19A524B5
:202840005561D3CE6590FBFA99D8D93A4D4B660A9D0F2062E7465CED03A5ECA039FFFD1D81
:202860005A3D11D40873F70D08D253584A39EC1792A17BCDF8423C0F04E5CABFA35BC19988
:20288000DABBDF103A92022918135915F303A3C9B9D50D97833025180001CF22A83769ADB9
:2028A00010B97E8F59DCDCFF9F51B5E5E8271C00420106CD4D2A16A995C71039C2DF81E189
:2028C000A9AC043A85146FDCF90DF7317B3F2FD8E5CFE0A7309C60E6A2D4F992CBA33DBFDA
:2028E000D0D33C3C23E27B2D912AD33F32E42E55973753F3FFDAB00C4C1E97B01BDD1056F2
:20290000D03861A703F3B50253B21506C820B3BDA6A3FA944F4AC0F6222FF0054ACA12B43C
:20292000197D6FFA838652A481509F4CC4AA432B6AD90A77E27C0785786B84D403B0B88924
:20294000A061ED4BB1B93A1F515612FEAB733178EBC49A71BF9AD19C76E98118017DA0D196
:202960009815AC62BDF87AB09EEA268C6908DA04390CE93F1546C9058F50D5C737221DD3DA
:20298000B5416595C7CFBAF349EAD2D47345336D0F7DDFF59461BB524BA7D36D23B3787C75
:2029A000CD53D628A3443D6A52F5F52B73F591491D67B8BA43283F5385134920FB4DCF9621
:2029C000715607206F0ACACA3F75A29E6C90DE56158950BBFBBD39A41483A290FA1D6E0547
:2029E000255EB91DED70DA129DED7ACE85A0E6F434F30A71FC149BB31D620CEB673ACF225C
:202A0000069D780DD7C069A5AF3D1D0D426B1F739CAE5B0713FC0811C305008A63EEAA6310
:202A20001D58C7E727D91D748A64C2BFF78D71B243994FB9DEC70F0995674AD2C0DE41C074
:202A400092B9EFEAA3374BC290E77DAE3A481935944E47CA9FF0845549BD52C08F4BB3AB4E
:202A600023012C3E9E860E0B4D8C28F74A60CF4C4E143D71967621A13499A1E6E58B3345B4
:202A800033D18B391CDB970D3F3B7D12C78D0BE8ED05727A0D4115ACDF8A0904E52826C22B
:202AA00059E3C478D59630737C30315AF90FDAA78DB9F8DF19B838F1BCDF5991D193281791
:202AC00015BBB9E4C8931257D5FFFEDD0FBAB3CFB062762C2F46A9A0ABD2BBF63C9EA2E9C6
:202AE000081A453E56F5DEFAA6A00A19BA5AE1022B8AE16E1CFBE7CE121839F5D81C1B3740
:202B00005D14D5F5747579BA837C858F3C8FE550F1B8CAB2BD33CC0C32762B3DBCE8218900
:202B200084D2BCA685EB8DB61026EAA07558918332E8041F5269792947C9C3FD493BFE9B02
:202B40005AFC0A69D23FCA052A13A196482B96DAE4A80BD3E402371B59935EBC288F6DD5D4
:202B6000284F46794D28B0F21DFFF43EC7E2E01C32E919A0302AB658C4EE103FE10EDC9B72
:202B8000A6CC6EF9E51C8CBCF818B6E40DF95476B241893F76CDA4FD98EEB55E1771110FB9
:202BA000225998FA74E737165D5CA81874D24ACB9A9A8C9F849D24D8287060F6672DA58663
:202BC00007A6C2B4605902CB0A73E21A258C89C6A3E9C47DE5718B8535BFD2038640AF2F33
:202BE000B72111CE0F966A4198C09511BB0AB39BE79A527D6928A1951A3C7FA186FE45CA9D
:202C0000C3B263037BBBB60D7F82E424DC7ACA2B0C371BEBED31C68E807BB3D316C9BB991D
:202C20007BCA4D08A6B0202BE344FEE6437CB9A07254944FE359DC92ECD4820008E3F6B50B
:202C4000C74BA8112CC1845B16F008A832E04B03C11260C2346BB622EEBA1CD22D20230055
:202C60004E491EF7D4A873B0CF3938F351345F0C887F3EF58234805B95852372A5B12EF6F2
:202C8000CC075AE9C1532F189FB0F2FB33C2D1B95A1049AEE12E7E1AC8C3624E85010B1E16
:202CA0000A422649D9764A354F2555D2418528D2B46917956880149D894021FEF1E0939EE4
:202CC000A5D4F1F09C87DFE4C5145EBBD8ACD8439A8F9A1CE975B6892E88C099554C436F45
:202CE00092B72C6C9437362C8932D0532258C5DD67DD63614677B42F1E67C213C7468F78B6
:202D0000D0EE29217F6CAF63596D92B7A56267D6C3E23277E8E1281B03FD4D2C752264434A
:202D2000A35783332FA35EFB2E0008D8E4FD8ABCFFEC4FE5141890EEC60D1E811E82ED3685
:202D4000094F144EDF34A61F843748E8D94F360573912D88D37E2F8AC7946C2185DCDCACFF
:202D600012D2CF95E83BDDCB452F61DDCFA71576D6180E8C5564638A2089874AC7859AA758
:202D80005A9CD50780A11C37B46143A31D51BB1F7EF64A6DCD4F56AD6E44755FB49203C0D1
:202DA00095B98233D20DF535FBD7D8F321BF6CCECD67CBD03A2DDA0A4527983B2BBD82226B
:202DC0005D830E64CE884C71001471F677638CAFD8A6914CC6328567DF78EDAB75BA093E5A
:202DE00054B6959EB107FF451B5AD025BBE392E19AE963842B365B2BFEA685569AA0FC46D3
:202E00000B33A2C1CEEEFDD0A74B316B625FACFBE60C108B5684121D5A6AA00B82A9AB7A3D
:202E20005E891A8840D113ACEB92DDE005EFC89EFA89708E9070EF86208566634EF24DFEB6
:202E40009FB60DD84423BB14F8649FC3A732186AA20111F8391DEAEE9A9467BB6AB05EF94E
:202E600044DF404EE2EF59D6CE5B952BD02BDEEE6CFBC14CE055C482CC1E3EB0BBFFA9487F
:202E800006A67FC8F2CA87B2A73A2ADD88BE1E6EB5794F6EEE1119EF1ABE81C4B0A91ACE40
:202EA000B14D252AAC16FCA1730EA5A62BE7F90E00CFFA42B03A59F48D8FAD3448C301FE38
:202EC0001F5B2B3A98F3C29E7DADFBDF6B73C433C473C3E1AED81E76F3309D1D69C759B044
:202EE0000DA786CFBBBF750C0D5BC5033F7A891ACA7970D4FF204F473CB4476756A535B583
:202F0000534AD2C4ECF47805FEB7D353121B3778A78252EF5784B0EC573E9306770DB568BA
:202F20002610AFF5A8C42DD5016BD6484CFC34207DCFBFD452465DCF99E56CAE61718DF099
:202F4000016B2C026C41D0E3557CEDECAD68A05B097288A84EE116DFB2E05BC2577E748F67
:202F6000DDE646E1CF32B43BFEDC7ED5587121304510A4EEE9E5A120554D508CE60D8BD6E8
:202F8000085D0EC722BE8CD7BE4CA97163408740BE2B7D46DA85A6F744268B82E12855F1B8
:202FA00051A7CDFB625A0E8684CD309C3B30BC14C50FCDBA8F44FC82B61682FC330AF595EC
:202FC000F6B820BB738CDE641CF7C20C5409BC146976BCD25A9B610CAA4A444BD811537A11
:202FE000D79AA6830F01A13931699D9882EF2DAD5A6D93BC4D233B5B5713102848928C0B04
:20300000A34735B963380467D582A1F0FDC88ABB1C96F06A7E972CB35F4A2CFBF079F19E18
:20302000DD92F43ABA734922692BE7CA824B5E8E89550BB1A1228C0C1A815A180B08775B76
:203040009102136AD44F00A94DCE0053B0623114EC9E729A6D40FCBB06E71F3819311660D1
:20306000B38B397F37F3BA39556263D321395CB850462C6D96DDED50055764EC2FC88F1CB5
:20308000B8A09F2428B1DCF8E438450BDC299ACC8B67E8D204A8C9D69DE87AE08FCD098CCA
:2030A000D2471B809938909E6933895D97E274DBBD9761C8DFBC170FD6C9863F37FB6816C1
:2030C0002FB838940E193352D74968D11F6C3EBB749E23F86C41AC15300BA9CFB150666E91
:2030E000CA722EDFA9DFCDA3630EF1955345EF6A8ACBCA99D870A9EE0B2264027063A18683
:20310000E2FA06AC3E5F1195D180945E4F16C1EA1C3F44E586CD955AC940D3867BCA32FFED
:203120006C6BB2593F432C2BBA35C857DB4B9EF46179E6311EBCFF1565ACE3FD8C8A1A0608
:203140004D95F1E46468ABD912192B51053D7E7DA1DE2501E401E0B06B9DF4925F2E9E2F82
:203160001AC10A465AB990F8CE0D1E0591AE0F272D665BAD6518224CB44179C6741879E473
:203180007BFB3643333823E84D2D33D6E3DB1EBC8DCC65F9D2F0CA029FBE921840CA83B521
:2031A000933A899578CBF3F543736037E54B68D822BC38A7B380118A3134A475A50AA88359
:2031C000AA7D43A8518944C2D96FB65F90921C5355B9F68391DB011329FF6344277D4F380E
:2031E000CBDC8D6708C086987876CE44CAB1F99F175020EC1425F1CE7B2F7F5226FF9A5B3B
:203200001F7D94B404B44B95325D0A1B0CBD497705C32CD65D6324A6EABEEBD840347278D8
:20322000DB72244C1D459A62048BB9B61AD6C1BEE6084C62D3C3FEBC58EEC946C87354FE38
:20324000EB923F9A98FC5AC029C9D2D2A96D8B14FD2DF138E70FA5187468F42E7B549A9121
:2032600036BBCB87962725EAAD8C3909F12C12EB62B4489B811C16DBED272530082B44D46F
:203280002F409BEEA1047ED508078A5BD69B26485608CCC70BFE0F1AA4EF9A6E02F5E18253
:2032A0004764DAB09023495E3673937991BB055101DDD9FF5E7DC93030804AB1690FD31296
:2032C00025071472C175B732BE6D90986B9689E9EA496D241BE223CA9AA97F0FD998F5274B
:2032E000A0805389A6938F8B25A740F0EC31C59AF761C71FA1AEF743E34AD718F5A7592609
:203300007869F8EB42FF4257B9E2FF73A133DD69E3E51877D0D586F1880FA55CBB77957D99
:203320004D1A788339DA57F71E7066BFAE83A2B06C6D34108FE156A3E20662325AE59B4177
:203340004C822687BA5930098D2058606EC742056DF4EF4E4385ED6BC3D4A13278259D392A
:20336000D425722C5D1BF5133D2A826E88F5341BC35DC565F64DFEC694BAC3E6B8FD91681D
:20338000821F8B495416A752FEDC1018037EE2CEA0856F1A6038438726AC98A2570F5B3F06
:2033A000981AEC6969EBC7ADB57266193CE5C315D8F546338E76084ADC0422A77D05FAEFEF
:2033C00081D07FE9927964B4BEC165EDD1294A41E983C962C928B12211A18C65C81F2FAFF8
:2033E0007777986C65D9825F909174CC101A79B3B9E1BEFA3B9825591F5DD7F1ECFFEC9EA9
:2034000092B6755990DEDB0F016AD238B3E511F627D8ABE7603573DF513F4C08029072903A
:20342000A4D53A5AA51F23DB06AEF8D1C5EDA53A4BE0CA1454053D5C4396085091D30C71A2
:20344000F84193DDAAB75108B5D0E0B23DA219649A12BC22C65D3B9F97DD170E17D3493211
:20346000A187D88359C88F948EC25F84248B1FA17CA3B67F16EAAB9B06F445CDA042F0E18A
:2034800086AD10B5C9950BD183279304FEB77B0CBE7692741DCA1CB6DC3D7D6582C2F44C0B
:2034A000D17DFD767B69D7E798E4FCEF57A79C4E78390F2AB07CC4BC9159D88C17A54EC0AC
:2034C00033463280B90490549EAADC39CD2D5F35A02FEC49B3CA9B54B941E422914ACFF229
:2034E000953BBC10741B9474A8BB8B05A08BEE64FAA3EBE8B9050D68AADDC7781F6EC3531D
:20350000DAE9A392714EC1849A78A0F83F96B42E538027ED5FE7398F2D536596541C543AE0
:20352000F7372BB6E75BF3ABE2674D41641529142998249F46D5F4F2B013641DE82A2F7D88
:20354000236600076AFE47F78D7C0BF89AF82B182A506DBCF8B5F322423805D3F7D5C3B757
:2035600037D01DFD1521AA2B512D11CACAFC58B8E84CF397BD73856E73DDC432F87400B8A5
:20358000B953C0C9DA2D0208A6416BCAA3285845DF4CEAAAE12BFAC34AAF8A375C7732DCDE
:2035A0002D5911763B8FDEBB4AEBF07B08BACA4A857E52AB8955D68D59FD7E2BA2CAAB2F9F
:2035C0000F8E9D4917E20A506E2E5FF63A7EBA90E440B2DD248653D782831C3E10B2187FE3
:2035E0003FC16C7A1D8032A274023D5AF5E053DB42EE476217CD0A883AC5C794C5CB40BB30
:2036000016E0B678124072630D0F692249F8E1A23041FB216BB66771B7E43F58B99EDDA860
:20362000C281441529DAC9017CE3550864E73E42E3246484D01E505F7845C02D0119A96E33
:2036400032C05FC7B3CB795578F9A587615F0CCFA5FC74953A58D8A431E49DE4199B00626A
:203660003AE6D5A487768E17AB0E0CD679C8FE1838F18704A51434D9E7BB96CE2E953BDCC3
:20368000F9424D7B8968472E6D5CEA2B4C022B69E684AB2813FCBD26B1FCBCCCE0C0E915FF
:2036A000D32FDD367B838ECFA95996482A088DE5902CE8AAE912C9FC8527C98DAB7B4EADE5
:2036C00073D4581D25F4EE62F5DB7FBA6574FCA96ED73BB4D73E2CC066E0B154BA01242DB2
:2036E0000AE8D555B070C09B3E85B50D930E96102A201ED4409AD634A797B644439AA8F496
:20370000B751AF7D9FA6F8FE179F7551891F2D574AA1299AE24FED7012A0AE18B97B58A4AE
:20372000DDC055415F1970842720BDA02484AB886A5FFAA2710E1268643E6AFFF8DF459B4B
:2037400047D174C8C9EBF83030A472C1924C4C8DF425AE5981B633CFAEEDDD20AE708C4799
:20376000DA21595210E2BF7E67C971CC9B50D517F2DC0BD231EC1A909EA41ADC0ED781BF61
:20378000182BE771F3F97D126630F2B74466345E17C52DD265B916EE07C8B46BC8E26F8F05
:2037A00047B1B46F686424F95FF86C00F9624B3770BBC449AAAF5A5E15F9692A441149835A
:2037C000C0626F92B2C4F5B3A134726C4D15F4A47C7CFB0C1E26E59857555A6FFAF9B44DD2
:2037E000AFE83F97F3B985ACC610A8763DED11FF04C5ADC7163C649A7CD73B5D6986B9A78A
:203800007F24BD64D55CB1C3F74E460D7D6F5B6A435A6A354CEC377284A51A1B7E28423F54
:203820005701F61830AD2AA813E9D0C7F6561D0D7CD0190F1B835A92ED4AE030429645CF39
:203840000C06B67C78423A962FC221621C707C2D870D9EAD0E3224D3A6642AE5CDFA657D19
:20386000A400BAEFA0A094399683DF5862F7757DCEB2A834F798C1D9E2E2D5141855C835B7
:203880005CA3BE1CB58D8DE67865168B52CB71AEEEAD171A5130860B3FE00CBDCB8021416D
:2038A000BAAAFCBE3858C74025C1BC92813686167126256A3DADE32B1DB3DDD480CF1BF7CC
:2038C00043D5D0A8CFB27696E6D6F59074F38A0959F54CA45BB7030CC6D0A1857BF2BF56F3
:2038E000A5C54EAB65DE47BEB08F8467B853B72928D47B8B82779C8CD2C3E1FF11F01AF362
:20390000169FEAAFA5DEA37BAE8DF3CB339C547318775DA67734D32E28C2D9A1FC48ADC0D6
:20392000749050196808844A30FFDCF583D158366F6EE69993747CE2CBBC86E205027E665F
:20394000DF3356A24B3A0B10F312757757DDAB576AA3318E61142D00146D4DAC81A2452E18
:203960008076154F7AB6EA3463D5A680FE058AEE102F7861D0F004CB06568EDEED5E8E502E
:20398000CD47F6E0C75BDDB4B9FC2B8B6DAC020EE35E9B522AE35D90724A4923270C470428
:2039A0004755B2B60EAA26B551C3A8D3C5785E59537FFA8EC33B26EAE9666E7D12B98CAD47
:2039C000B5264417FA4B003838E601663B89CAFAECF0D0A711B8400B2FC8CDA83BA9A39835
:2039E00037FB1E9F33465E087FC256DD3AC0AF5F9C749121E9E59CFDE538E8317E57FC8FBE
:203A000043682F3F6B2BC6A591C7274F6263D06F196D0CC71781AE525F20B9FA5D2D8A275C
:203A2000C5C799D1916FF370ADEB9021BD4D9B81687918104B3477C1BADCE04B71CB476456
:203A40003D00899ACAFFDDAA7A9B1A2CF08D9512853792E4147ADC904FD817B48EA8FFE202
:203A6000A42CE4BDC300B7689B6E95AF1A4BD02C47CEC63A38634FC223F94AF2E7291BD130
:203A80009C3788C4A8D84E847F2A48A5E42C750407EA6CBFE2C4AA40DC2199C9B5C581711F
:203AA00052C413E3C30B836F7F41BA0E1AA9DEF68446EAFCBC5BEFD78D47E8873E85CFB900
:203AC000A9D75220199241FB66FD3FA0099C263242A2456FDB84B4F7D43B557B23FC31FA03
:203AE0007200654357BEDDF204EF95BF1C4FCDF120B6449B405FDE24225B4BDD3CC5D86A1A
:203B0000CC452E0937E3DB84C5526AEBEEF5DA846D645A6CB795B912224021FB72FFB53FA6
:203B2000172BF3D621C4B93DDAC0D6EDF5F3352D80C770D76A6BB2368B1BE7F6C2E011C6B1
:203B40009D2BD4C3010463A8AB1D91F7BECC1C2E0AF37AAB8EDED4AB79BD4B05DDC27BFA2B
:203B6000AE1050CA1E722B7C63C72C4DD9BA77BFFEB8ECCE656637BE56284A44B85ECAE8C6
:203B8000A29748AE7B521098C8FD48C7B286D2BE458C0725D6AD9448D89173F628E7C305E0
:203BA000FC44AB4272C943ABA75306681E6F0CD0558BFE2C56A511F402FFD5E9DF1A6FE0CD
:203BC0003942CA6DDB904C7C485B7D83A62C2A6985A3A09CE997AE5732B64072F35ACC8DCF
:203BE000E3262EDBA49EF4C53F82E4FB278E4ED5D56C643C79D3F6A294733A2550D989EE75
:203C00008EF09F80FD4EC4E6AEDA5C66B2B22FA4686A9D86F59013102F8C473163CE7466B6
:203C2000F9F66C37EECDD786A87D8D9E7690EFE14396BDE63C02F8FEDC8E5171079282DFDE
:203C400066F66CBC45F8B59B9216DD7802749A9E9C65EECD118E29F6FE6E5B607B667E1692
:203C6000FBAD387F23339B4AE02153252580FC67F3B3D4A1A4B5CED7CC76BED79D551F2CFC
:203C800098C77D553C1A7A69C9A3EDF03B04D17E72F46CC892DC7145DF61B2AD74C4AD8B16
:203CA00002278D5E02A62BD9386AD801C7DD9CC8A44065A9E85799BB553775DA68CDF40533
:203CC000F561ED1376727BCBC9938F2704707D01C4E908345E04A2AA8DD209CB3050706B37
:203CE00076D20B66F0885232C59ADF55C872B6E4B974167EC4BFA6F0BF4386A469AF9A7977
:203D00002224B0326417113C97D66FC4244DE21A1B2412BC39F2A6B62B1BA6AC02ADC815EE
:203D2000FF6632A3C1847FA163D9E6ED50E2CB71616B89449DDE3F307DFA064971653AE925
:203D40000E5AC5BD1B3E5896A47058600BB966494F354A9624837820270225C77D3630FE5A
:203D60009FFDDFF61C0E562213F29F2C85DF24C494BDFA3C1AA4C58AE1A496191891196E1C
:203D8000405AC00ED96F2C41DE288232E34B9A48DD6133BF3CF4E4FB37541478783D0982A6
:203DA000D931EC2B1E15EA2491B85DF12192A6960A4D3BB75D59324C76C5D6845BB3C9A191
:203DC0001E0059B25F6F2AC7760E2D8396F2DAA4AE7D6E2A0152247FFE9FB4593F66C9DD13
:203DE000EFBCD32039F4379A2273404E2BAEB584EA31D6DD459E9FCBDCD9B3BFBAD088108E
:203E0000455093DA1FB96BB946D3078E11D55350EA306E0D8FEB98511C07445F4077DF52C7
:203E2000EA3009DB1ADA6431C61C96729611BA068663D58A627B8059B842BE17750B78CF16
:203E4000F3B5A3E0CB78350FCB3D46725525BA0B4D3DD9DDA255F06FB0B023D81C4DBBBBE1
:203E6000A4C77EE06ED93A0D2EC6BE24340D049288B3CA37319B2C9EC533301B545DF27E08
:203E8000828BCE8DA7D99D7303CBAFDC96CB3BA2AB914F69828389089ADF1B3AA81EB9D1EB
:203EA000D340A2A83F76EAAE15573465EB5008F9F88E6FC30D88FBFE01C5F3C7BE62CAE483
:203EC00012DE085529926335A6A0532B4F241C4AD721421AAEF5C34B45A4A7798223F0B34F
:203EE0008C50520D47B2D0652A3A1D6D34CFAEDDA8A8F09C20AF351D1ABD1085EBEAB2836A
:203F0000AFA09FFED10F022551DCEF74D7561675F5C9D0D9325492DC1A35F28AA14B7A409A
:203F2000879ABD9430AF0C99A6CB4A43C0C045C4A79B8F2119D8505B0DC2E49B1C7783060C
:203F400062AEED3D99824545BD363367094F1C5AF02EE306BB5827AE4962866DCB707D2FB3
:203F60004744E111D3072B24564A64E3A5E951BEA689ABEE947D4B0A873FF336FBD7794C63
:203F8000B9041FC56D0B87E803BEB071F343086010C8C741C58E9ACAF9D7899313F4297EE8
:203FA000D01829A1C98C509A02C2EAD5CDD91644379325330F37862A6954CB9682F3D40E00
:203FC0009531A1DB1A679684772C3F02A4C5FD1FC0455C80CEF56F9891FE3875C0B9180E15
:203FE000EDDC3F9C383B29CFFDA1BBE2F88486A357ABD63C9754409FC208491B2E21C3BEF6
:20400000143015C88561E7851B8C832D3A8C9F0D78941D15E3DB77999BA0D92FF10EA1DB9A
:20402000DDFDCEC86EBE1DF6C450210AD1126535693CA29A03AEDA38B87B2CE587B7930C50
:20404000EBA74F3CBDD79EB977265092B96DC8893BA3C6B46B06D82F23950FF392376F0D93
:20406000BD141F29C22878929EE823DC5D477F4BB3A3AAE3F0DEA0E4CF201928C7AA273F04
:20408000B743D5A44E9EC6122B341682E3FBD1DB16C440EF8D8B1CDE743A5AA20E4FCAF389
:2040A000C1E4251972DAFD14DD97B7BCC81D00D44E3D12036A38B12B27F63013442304DC5B
:2040C0006922C1FFD5B7693CC62B11F5D45F16563A8653D03DC6888832F9F27BA9EAD0B924
:2040E00093DA52A55C01FE97D4D63C3E26BC57C7E0DAD9BDD0339FA29A39CDDCC5EE92DC15
:204100005B5861F90C71F93988BCFC668A4A6176A12B9ACE1012E9603BAF0B233321D2E5D0
:204120004360E3CE5A5DBA6EE0A035133638184FD7573A9A53C4CB486F01BE5C66D6056652
:20414000EA17232A67931B44702CED70DDD5290297BB4BDCE738927E949A5E589F5D080A48
:204160009BCE291F15EEE8443BF62927D65B6A99D7BBC5AA8B287FB285A495CC34C2A4128F
:2041800023E3D50FAC09EDA8D307A1F00E6AA8382FC581E3985E7F724E769A70581B0F7821
:2041A000511704F3855BECCECE1DD783878EA41AFC5D9D6F41C07AC46463C0356F7C4FB79D
:2041C000F8289FF666B4B2D4D8B2157A86FBEBC0D28074FB7EA036909D3F8F229BB75F5111
:2041E000CD1F8B5EEFADB447AAC8968EAAFF3E68770062EE08543957F20E5926258F39212E
:2042000053C4AD67708DD025CC2C51B509A7E69E0126AB9A54704879E5336BE1548D211ADE
:204220008F753BE651D6F8EA2F3D22DB02844D4A28BB25FFE49ECCE37C33813C21EFD13E07
:204240000B3625946CFF4C2A2DC16B174D6C7661E621B998672236F1A857691D54BCC840DE
:204260006CE3D0CC5FB8DD286EFAD12332B5960FBD2055FF3538D7E80033EB15962ED571B5
:20428000F82AAB699CAA022D43902A6C5112BEF3C059603467C80A330CE7CB2BCDC891408E
:2042A00025602A080A2D73121D28BCA50E6A97ED75F8543CCDA10A2F20775CB4DFD7607B0D
:2042C000FFEA47F1E7B6E993E64E173E0C6525A14FDDB5D57355728455FBE792D0BE3346A0
:2042E000C840A52323A605BE0EC0567F8ACB22BA51BA6401218B08A978C39BECCE56C327F1
:204300001BD076CCBF017EA9D7F7C6B2FFF2FA8AD82C40155931253D37FCAB5F0B19F0B880
:20432000FD2E64B95456FB4F3CBB2A2AC455AA85C91014A115ADCDE9AB3994C3561E9DBE9E
:20434000070EB4D08D40358231F0D99E06FB78E2512596FA054EA24F607A0E1AC138F91DF2
:204360001D6C23B6A1D9F888DB917024D42FE2AFC1B2713088A3B8B86B646F13321AC0F849
:20438000F7BB809AD8C140772D0D1F73DD7D7B31975E590FC6C9957AB36A4A3C6AE556C02C
:2043A000D1772D18AF47D7FF71F9027A8445DBEEE93E7BD3C1B1322E2606E76E76040D4895
:2043C000B65EA2665062824F87599DCDC61AF56D8F5C522C6983FF2045FFF2A86069886CA3
:2043E000ECBAC325A3759E87BB2B4C671364670B107ADE1AB2E1DE335F81205070D9EF1DA5
:20440000D030E10C56D0CA1ABECB703E36970CE097E698E68A6EBA0ADB8FC621544D17E213
:204420003C2E97E2835BB540AFC45BE771A0FDC8753FB8894009926276D630C70AA8C570DF
:20444000B38D020700295D3C315836C512D2993A92FDAC14948DA1329B346CAD2BED360697
:20446000FFEA33E39EF5C84BE27C58E8D2CD4FA33DF5340CFCB0DC26ECCF6BCBBDAF104398
:20448000222FC6279EB59C9C3560321835B85FCEE5C86F35B9290A4E0E0DF7CF89FC8D32AA
:2044A0006B14C6A2062704875997D69B7EC3F0336F9CE6F540DB8AF825781891BECD1339F8
:2044C000D3FFAC20F2BCC8BDC3E8DC21536ECF4A1CC45FED1698F2908ACD7D8E0F73C98CF4
:2044E000849DC87F17D040B2D4293257FE68A4B7A8CD74F96D25223B0C1B95243F39AD4F0F
:204500001E509CB6A650334C83AD18ED659A912128C6E541FECF1E5E7A8D72FB3A1B729A4E
:204520007BE239AECCEE11589A2876C00D35D5728A74FB79546C514F313D3B18DE37116773
:204540003A7D728361E3553AB58DA6D5595E5145B8FF71C620F9460E91EA7C8EB3F879626C
:20456000160E858FC25210A61EC1C4C6C57BF6D2ECF560DEC64B47403763F17767C786BC9F
:204580001343BE4AD8C18266EFCBA75E347F4816F4A9A1BE979B9CCBC744585F60993F5786
:2045A0003B07B281BCABFA2A72FAEFFBA4E90BB81BDA83BD25C82478A7F383936923055501
:2045C0008B4F232DCCC65A48AF764B9DABA126DD399F438516813172E23ADAC82866C14FEB
:2045E000F4996F54C6DEEB54803A0DAF7D87CC05CCA55AC9E07F3F091EB04A92EB921F4973
:20460000B5FCA81132D2175AB4EF05DB7481F55B6ED4FB830BF76F755A653615945968EE00
:204620001BC4FA81DEBAD3FA8D0015F07A63959CBBEE2316969C3EBD8D33B7CC9C02C55B0B
:204640008617C0B087747DB30101F60AE27EFBF7D0995AA53551577E863CF3AA03075E8ABA
:204660003ABA6A62A3E5144671701595A633DB0F38BFFC02A81F2534BF41294B80D2B0FAC5
:20468000A36BCF28139853EA841334C53CC2D85261E472430A5BE21B9436A261BBC9C69E64
:2046A000BF1BF13B63B3FB9F6C117D94EB60F7FD69D7E99B606DEF4788B493DCF5F22FBB34
:2046C0004D950521D09CEEADE8D2D7F9DE4E30343EA5F7E3DF2A3E522BAAB2AF1F1FAA79C4
:2046E000E2C246555AD62CCCE83BB38D95F66839845F9E50FA4BDB2356B2F625EA3F8EC90D
:20470000285D161C07DAD968782BFBA477B1BD3441782BC080597E97E623FEA8E006E2A9B3
:20472000ADE96537E04C32A98535D7CF5037ACA5F5C1E37113CE48CEDE7F35E4DC3188718B
:204740004851F68D4B8554F546823A4B81AF47AF7758B21E227196DFA0965860174ECC5497
:20476000AD6686FF401E59706DEE2A9193FD4D2F38856D837E6A4ED7BA17EDB52CF3DEF836
:20478000B5E59E1B28476E58FE42B03446044BA349292891E048D64317AF442931A4437905
:2047A0001032DCAE5F3106F01614853BB91A90B6CB4A6C03CB4D176C0F5B04790345275AD5
:2047C000FF372414289D431722387ACCC39A89FD1F8D5DE63740AEC31A6F9E032D8DECD151
:2047E000ED2A3C82F57B8E2E0654E092D24BA874D1075975E74022BE8861F9B8FE40EA95AF
:204800004BA8DE995E0707A3FF2FE0E35F1BF0CFC72A32263376EAAD077DF99481D530C60F
:204820006A4B47296C0F16C9FFB576B85F3F5E6C712AF1D40DC361D4BE3191E10E7222291E
:20484000FE1A7814D4C663B71368267D00324DC81E8D2357E45CB8A6E9726B3A7D35BB8CDF
:20486000934CB944C64A98AAC639C0A49DE3D48CE4C9C2814FCA44A262D22A615A2939DE7F
:20488000AD99EAB3790801D4F47891AB9C1309069EDF55B4723A3DC90816E2F41F364F9D0C
:2048A000FFE1F703F92112DBC7EE8CD63999064EC924C37BD3856C735C20AB62250DB4BE4B
:2048C00028F3ABBA1C050C7CCC7AEC83AE668F6E0F942AFA73D4C97A7484A7D876AFB6BA8C
:2048E0003ACEAD45EE4C32C31746AE5999E9C4F5913D5391E2B94A542A3045975E34061C1B
:20490000C33149DFB84A7FC36267E32C2570E18BBFB147385C24D88083591BBD069A65E3FB
:20492000409295679FE53D46BD8F2F7AD61E2FB94FB9D8ADEDCDBF9F59C85C5F2EC2BDC7DC
:2049400001FFEC93DB79ECDA74007BCCF55DA9642A616D4CC1B8F672D2F60ED788DD17FA5C
:20496000D26779D6329CDED5CDFE38EC51F3A9FB1FF735CD547005490979C0E46B155196A0
:20498000E880FA8DE4D2328D83987FC37F0920DF4C12B790A84AA662622FCDB8DBF96AB824
:2049A000ACA204D1F81C174CC5A749BCF141CA0059E198585DC0ED9DDA982BB40579B28915
:2049C0002DC616DC044FE630FB6BCB0100EA702065CC5FFA61115BECB566F760F062464C44
:2049E000F4C08E2A2BEDFB09FA675DF1F5EC9CF0270B4F3819B8271C6A2A279E58853F9938
:204A0000257E0C405B45F577D155FFFAB36AF7C8CA0639E5120D323C9871C000C55DB17415
:204A200028C4CB76E05C94E116D767C4B82D6900335FD4514C5986184CCFA7EA85F4B174EE
:204A4000A38AD1EF9F80E86D7258CF3BA66E836B08BFCD66886028CE3DB32A10B4AA5B2143
:204A600025F2202E5B7961B27666DEF48A4B72DD4B3CE1C5274AEB436102B1EB56D7B8C8A0
:204A8000FCAD15B34E550F8E5E1AF022813444F2414CC578C895FADA06DDCC59C7755C9FB6
:204AA000AD16F7DC35BE8FF62C52660D5AC9C12DBEBFAA09123FFF66B33AAC7188B6C7E908
:204AC000BD51746B3C68BC82BDCF4B752EEC803D1B9F9A08CA528C6E169128FB111E6D7696
:204AE0008B7D4F095555F05602284B43F48937C6BA6F55E91BBE1E6AC40655AB3FC1709F93
:204B000061D5EAB19D76E8C6AE4406A20749798C596241A2C8835BCD5EE4454E0045174191
:204B2000B7ACE11F9F862944868E3AD7B87C637A8CC852DD80CED6DD7A1D52B83099C6692D
:204B40002CC5EB5A685AEDD238FD1B3A498314E280CBC237F339C0E8D503A582347013ED97
:204B6000C8D1AAF390081131DB7FA483B39C94F6086F3865D68E76F304028465B56A9EC876
:204B8000E92D7177D8215177B9915B73953D35396EAE79C438AE16395BB7EF8E84AC7B70C6
:204BA000E0DB99852A1D1DE61EC0AB4533025DC6CD4BF607F1DA903B17381B2032C3F30D82
:204BC00015EB93BAA4B00E509092A67702D006595A28C138B5747F064A5E6DF201FDB45A2A
:204BE000CC9E30486FA3221C3DA5765E3418394631C2C60901BB57A16B8D6F46421C4E93A0
:204C0000DE4BAB63A0BEEAB606A4FB0FFD20D2322426C03F36AA5810478EDCE234DBD9205E
:204C200056E380E86CD5A673D80F025DC047A44ABB3C211C5B0F5C33F29B1C12E107822AC2
:204C4000CBDAB919A0E9C54F804D6726A8FB50FFEA9127F7BABDC447864DF5D1B89491D093
:204C60008DD791E58E8AAAD177D19B0EA8368BF74A1C274FE08B700D15719253F3F397EBDF
:204C8000BB9699D0696A715FE7557FE921B59F50C2FE879B6C41EF026784CF1CF756DD834B
:204CA0003AAF53119CBA8DDFABC8688B0B87EC60D24291F56CFB7F79A69768E59B54679137
:204CC00078FBAE71628DB30770A7F0A3D964F7E0976F49B5C5E7173F30D96A0551A84456CA
:204CE00061D6120FD87BFD448F8985C50ADBA0429F884E2B0AB2CB90E46F408923ADB5C87F
:204D0000629A420251E7081C7205263C62513454392866C95A194BAF0B822A683A7421E117
:204D2000D3BD6370989DF0B78031B9058B8E2D923BEC50FA47EC6E484E93F6CFBD9FE2FDB2
:204D4000E34468A5EEC3BC9B38AE48285F45237C54982D4E24279AE64E1A2105A620FAE11D
:204D60004FBB22472588A47730B4C299A445E909707A7A257194D9BCAA8256D4A2B6F41702
:204D8000B367D8A423DC56CCF3B61E6F640042093118942CA6D56FBBE2669CA332CFD479F4
:204DA000C0AAE63C6C44E69423AE31BB756957A93F4DA38922C770DDF81DC1BC3FB39A2472
:204DC000E1A5AEB91A069CEC320009F8A4B445780FF263E42C4B56F93A08434F83295470A4
:204DE000140DD9D0BA9D8F39B0B65722BE783944D748AD4D4FB5F7964EB57F12C24C68087C
:204E0000AB99E397DA74BD72632A3475F3343BC1CEFF773A7C07205F154282051D7C76632E
:204E20004D4E772495A269628B3BE9258081A21A7ABE44C2D52E8CA378848198F2B854E640
:204E4000B3D028A5BD162C2B9614AF411DFBDE94A0688B5E38B38E1FC2D3AB1021D170D2A7
:204E6000E60371B059FD5C6392182CC07E4B857DA6EDF78A2DF6ADFF4108E3E96A1B09C567
:204E8000A4DC5A1A8A2D3AA20B27CC1F87CEA0764D2E6A34D9E5A5F055716E511A73F97616
:204EA0000F671BA1F06BF378B2557F05298E7873676C9B3CB1D5ECBE376AC418BEE98898AF
:204EC0002E551020B2FE86E23BF28184669FC6C7F9FBE9ADD7BDC5397A5D6A86A6DAB9C95E
:204EE000CCE6D7D47E57C068E6B900BF54685797A4FD1EC3FFDBC07190D7A55594003B6033
:204F000038B8B77FC8F149A23B81C71DBC05E51205D3E1A9BBF6C9F0256644A6B16AD4E55A
:204F20007E9F869CB0D7CEB2B47C877D13A3B48AF19250C01E91A442EEC65962ADA2F0D05D
:204F4000ADE19F1C7F49622D052FF53F6E4CDD82B1BAB51F1A13C7ECFA44ADE97E6C04113E
:204F60008CB7D03204980BA83023BBEF9C65D4A2E9D7B1F3EDD1B6991AB2213B9B79AF9835
:204F80002AE3B3B67BAA7D19AE0CEFF758D850956F0BFFA6BB1124BB0137175176CF0DB6B9
:204FA0007322C4B8B21D263E599744E1E1BE4042628CCB8F7A08DD19BFF7B544932BA3DEC9
:204FC000FE3883351397E252E5C04D23CC43D942F6D5EFE9047E3C6B45ABF9BA67E2AB2D36
:204FE000F465E2A93B0B2ECAA979AAB9BBBA4C7B1E734EBD3CB9DA7FFC18F0689D28EA02C7
:20500000141F2E67603006EBA7243F8BD482AF8A5E7E9CF494EEF13B8B63AD231AC62D81BD
:205020008EA7A49C8BE51BEE6C621517794EAB796865091F8BF56E262EF3DBFD83E3D1E183
:20504000F7BEFC2DDE13FF7962AE8831D8D9C13CB733BAB4BC0DF599387E6D98091E6B880E
:20506000913420BA527E9B556690BCDD6C3D4D54319F454F291C24E9C962F45FA5666F4406
:2050800042009FA4B906E93998654D2B51172CFB3119666AD81B5E750F36F1EF893BAF002E
:2050A00021779A6C9EA99A2BB50BB7C4CFF998B236F92E8C00046C27A12A948314FAAF5C7E
:2050C000B54D0AD97CBF5C887E3BB4CC649AA5169D3FB8900D22FF1C0B73CB74141716BBB3
:2050E0005C5A0E82EFBF35769CA60EC5509FC206847EE5D5411F4F934DEDCD08F3E8736684
:2051000024F9700A8B2327DE0942F367143ACC6CB1C4EF9532407A3C0B7B3401F12C83B4EA
:2051200032A8A0572EB87A605707CBFF2BE77E122161572EF8DD34E37E33FE10EF25ECDC86
:20514000BF3F346C9A753DF94A8F3E2A757B1123FC22E090D554BB5573BCD8FAB96A713279
:205160001AEE40EBB31277AB235EE4689F096E0322DB13CC445B076B84DFF8DE9C423FDF0D
:205180001E0C10863A2570E9AA346C776F52B56A4DD4D8DE56A4EDBEE7D567D41A990FE1E0
:2051A0001E054A92F9E8C9FD6B292210EF90FB31298E90C86A61887A1E519F65BD9CCF1051
:2051C000258B5869072371650BDB732D81DDCF57D935AA8C094677BD7DD074A749633FCF6B
:2051E0005911EA63379229061C2ABD8FEE5BF84181478C87F14307DE149AEC37AEC91CA7ED
:205200009BA4D370F26B1F460CA46FDE89E7CF21D8322601D6B8DD160A0B4F9CA6F25753F9
:205220000E15F34987884E1528457B4DD428552CCBCA5F7CA31BD0E3C6BD65E71C82A019E4
:205240004C1CD074F3859A50E410D8913C9042E2B622D1DB93DBB0F3441083CA2266F9A696
:20526000A56100B757E13846300F9792423FA6357A8231F9B1C486716CDD30E301CF2D7D8F
:205280001732ECDB908A8AD5EA8BAB84431DB0046A4D4F9F35FFF5E0DB8E4B7AB055446147
:2052A000E11A7A1053CBA5F0F85C0F2519022E4E2D2B79B47F8D47173D0BFF013E10249559
:2052C0004649A228A2A0B09EA85FA7D9F0CFC6D860FD4C85DC90E154D363D347CBA3B1E7DC
:2052E000377ADFCF5F05AB8C7BDA0B1FE56E276D4527A141C39FB8B6684E553FCD68D305D9
:20530000AEC0A176F0F6785A52C0090184C26E653B6502A4016F2398C1286711B06BBF125D
:2053200007067124CCB07D4FAE46EF0395B731A5DFF00468662E033E9D08B5C78E67AAE6C5
:2053400000F7FA7E5149988AE7B3F5BA801F030AF7C232BF6757ABD8033287C3FBB6C0470B
:205360009C08029DBCB35495587980B33948BE7D05ABCFCC35EA7FA94B227B1EC2D48F30E5
:20538000F2AE1E771C654D446D9C67EED6F89FBA740ABE50E6F411B18959529A3735D38389
:2053A000E94FC18A2A4660A05D8B5E988290D25382C0AAB7163E4AFE9D6CEDC313B20C37E5
:2053C000C9E404863715902DAA1DF25A95792FF887FE17778B1B6CAB05C2ECBD589C8CABDA
:2053E0007F26CF9E8C4B1C6D2F7D0DF84BEF68243DF53C149B95ACAD7758817428D3D40D19
:205400009147DB6EA9906B3BE1A9470E0E745F155AC88063607810EA79222633C9A8455CDA
:20542000A8FF670414FA7AAC890032F14D9E9E03F96C195F5271AC1937F0F486693871399D
:2054400064EA650E0C5B00604ED3DA60451E9CDB84233A5D8EE60A36534ECC2305F4425181
:205460008FF98C633890F69E6BB9117F974CD31854190246FD13AB7EE02FBBBE8EDD5A5943
:205480009088D14B9239A2F42C9CF2D4D58A9F067AB4CFEBF1FC537B4E0E8309D4380F8EB1
:2054A0005EB7EE0E7B87861B770E1A6021D6A9558FB443DA0D6F68943455FD83B6981FF303
:2054C0008D64751D9C908BF22DB474E2E2F25977652D7920F53480EF4E5AD925890364DE8E
:2054E000EF26D3BD608BB9FF2850AD58FA85B241FC861D881EFEFE58E386CE41B766682AB5
:205500004F96F3BB1F9C17DA747AF7A48727F5C9A8972803E5DCBFF0287BD9DABC7748C2EA
:20552000E782096491F622606F4314A40659D0BC9005991F3D654472D60293A3C23C1DFC6D
:205540003235BD041E9037B274C894A1C81BEACFAB1D49B7DD2885823E968E8E627F9D320B
:20556000251771D19CCB9DFFCDE7AA74D0A2AABA18C3F8A5F3661F09AF3AC68802A84FF5E4
:205580002B617CB1AA1833DF7F49E9F67E11B19BEBD3769F87F83FBEF76722610415FD2591
:2055A00098B4496F26F81000901825A97D298B9E882B9C2F32AF6E3222BDB942F6D1DA6991
:2055C0004CC45DCAC74274F3C2760E6ED29541CEDC83D9D979CDF2E845164C683ECD09BFE7
:2055E0003DBB5DB9CBC1D645B7A86CBCA1005F8C7CEB6672F801F07ED17484B1F60BB4F519
:205600006C4F30173887031BAD9321D060364745B6BFEC536796C63CCBDEE8563D244FAB63
:20562000F4774F51CF4854F5E84BC564DF1F1E9B2D3EFA361F608ED588F44C599FACDD889E
:205640004476DCE9E6F5766E6BF76B1BD1625CABC04D29FE2A198C94E97AC9DBFCFB553BC5
:205660006D3C20694335B438C88CCB27F472032597A0985283DF5E2AEA47FF6C2C9A716F73
:20568000A12FAE9442F3688B98F1369D4E649F7776A3435C6203B88EDEF57FFB35480B2D47
:2056A0001A5B86C4C46FE3A4370DBA92A8C0DC85A888F58856150D9E771FB64D736C554F39
:2056C000E50882F3DEDAB207C09F24554926E51D19F953AD5283D7054EE74DA4B89630CB7C
:2056E000B76AADA03EE9A7CDD5EEC8B7F0B855513A99337A18A8FC62317DA5F68D0D4E2919
:205700006E599DDE7945DF305286D764BA1F149592FC6A1F62B6B20F6D4B6EC143B03FC814
:205720009F9E48971A76D8F4BA032792D098A711680F6491A32FC7B8A68E712ED61DECA14B
:20574000460FC41CD77C7B1B2375645E8E1F3ED4A35C58344CAE246FD690F18C04AA1D9CB0
:2057600017864CC1D38B3AEB93486D2DCA692987509C8A79C4B75597EA5545478BEF16797A
:2057800058C84608D37C0118226DA00340F7A56D666A3C681FA3D76031B4D67E46F35FA4D6
:2057A00032F3D5022221B4D39B725757165156F2AFD7E021B2AE5AB4F1E6D71EA682D22ED0
:2057C0000DFCD14D22A34B44B569CCAD4C7F49DF5DE4CE6E123EF1839920103B4A952D185B
:2057E0009F29491A8009CF0C8C9C6B49E1AC67719CF7C0C2B4631BCF0A4DB301920FFA20FD
:205800003BB30D23352F5F5314C1E276D2A7A2ECB99F9E52D46A643C0D7A0F3255CE7A7C19
:20582000A24B0D2D9F443B6D986CADF281A5FD62ABC748F370A74BD14FD115BB1F2CFE462F
:205840004766D4879A744D746331BA67BD71BB687DAD878E85870BFAFF3CDECD2F804D6BCE
:205860006E67AB1AD075C83779D48F3FEDE413DE16AD3D72A56FC0C05ADA875D968045E311
:20588000E34EF855C6A09707E55015B0F7CC0D1B28FFB68142DBC6FFA7EAC0F6ED6BA1F928
:2058A0008FAB5C9EEBBE177616368C545A0FC88ECC6C3496C9C3A00788F9ADDBDFA0197944
:2058C000AF1B214B706F306AE7406B0C4E71A49722312A81370A30CB0B5415F1103C96758B
:2058E0001C13A53EEE7C1E5D3CCAAE885794B8165416B9AD769842A4EB55401B593E59ABC2
:20590000AAF6F03BCB66A9A613CC446D5BA773769CFF9CFA83E8FE83D00153983B0203FEAA
:205920007003DE61A47C4BEE6C129AA954D54843E1CA7F5AA15E28C1F76C6BCA12116A1046
:20594000C846FC58C912D21FB3AE8D704E542EFBB810B67183A95C12DB1C69371180DC5B08
:20596000A889E00ED9F079CFF85FA6F3D0B773A23E6F11015BF98C1FEAE97DADA89A0D332E
:20598000D232C8C4742021C897E6792403684123A9C7F9A16EDA00AEFCC123EF72CC265D81
:2059A0005173219EEFAE2E1D4E496A7480681B81A85904E1A16CC4F7321AC8B2FC3255CBC1
:2059C000BF1BD29047A334FA98DB53256F8B2D93A6A24619C845BBE5AE296BD4E67C201BC7
:2059E000F49FB464968B3A05240948C5189F87A6EC340C5AEB3C037A5FECE11D375F141C45
:205A0000BB3830D0D6C8FD1A6841F4BEFCF6CD0FA1C5E8B16FC62FB89C3A05A9A91CCEC5BE
:205A2000F42C0AE06EB7CF2336F1F2AA47447D691FD27B717763ADF50878349CC354714B95
:205A4000732FCAD0ECEDA1EAF5C47B7DD3857058BD9B89D7A05C4E917E14D7F582335FE2EE
:205A600080A6371879AC7D3231917CB2E72F218208DCDF28CA9AAB16E03951D715AB67C2FA
:205A80006599FD2C4E57DE101E57A50FE09CA94FF354EDA6533717E5FB2037405AA61C851C
:205AA00029B94D4E31F434B0FDCF0972F49B36449002E4C0BEC16E2D8117312D209EB578DF
:205AC0003B20E5264E5A1DFE1F3CA8842DA4F15FEAF2B058C15CC7674A1FCD1AC307905FBD
:205AE000199137D4B60FF635E4E5A08118EAFFDC26D1422DEE5CB6DE587DDC2E8D033A1736
:205B0000AC496B9B6D1DA9DBFC7A74DCBB454F6020F0F4F2C56270BCDB587B3833C7A8E155
:205B2000AB88D4CF7E636F0927673174E8DA23132E7B0E9C0F48524AD8AEC014A171A8357C
:205B4000D2933032717FE1BD80EBCA5E31FCD301356809B7B80BD262368AF6D0A35B67B568
:205B6000BEFBA155A9F1A2AE9A511B237DF419DBDBBEDF3867F07CC6C1CDFBE688111A256E
:205B800083149F355A7E5843C65A1D67EFAEE542711AF4E47C2E4ECE7FDB94DBF5BB26886F
:205BA00036F69F6854E3815D669B720DD314D612E8B9756E1C35A955C6D1B67FE97D4E0BF0
:205BC000349430F90E7CED8D99977EE1BC40FB6A0481F23B45B76C014C4AA1832D0173E882
:205BE0004C67D83EE4DD046BCCE8D484B7C89986D64C7B678A12C57C272FACC3DB6A60981F
:205C00002495945468BC86277D866F5DE3E74A84B11BADE0860B5E39A15B16B43040906103
:205C2000873C602133441D19C654EA03A3689940E52812BFBD7F1218375AB20CA5D1F63D4C
:205C4000F60DD5A78728506DFD931A31215A9639C2D6CF082ED1A4082948EAD9911174F4DC
:205C60005DAD0D9592F1B8BCD7A5C12A64E0F6DCC47949CE02EE0E2469CC7D3F3E77DBEB22
:205C80001E26D4744D00A6D01E1231890F79A449510E1418C8A5F16F9EE82BC674787E5FBE
:205CA000C9D50B3E0C828EC3D278B0F0BD8514EF2833EE3063C223793464D665D4E05CA52D
:205CC00093D1BF396E663DCF7F504550F401B218D33C9D408A4EFC06B29209A7AC29EFF1F6
:205CE0001C0B5CEBC6DB81C2F61FB0127DD38432B2BD9198431B1A45D5B887DB5C952355C8
:205D0000615433E9A5C752F8BADB496B9DE989DF0ED6F5EE9856AE00F016150D53A565617C
:205D2000FC5AB1289F9A8DEB6A98DD68D1AFA8EB2EA7CD85A034BD0AA533F98EB144A4155A
:205D400075E86F4238614074480983FF79462F406E2ADFACD7DFC0C79DA6836CA0FE392658
:205D6000F4C7F3E83F65B3CD67593C96B0BE915F04B8208765F83D9527A7A592DDD4D34A14
:205D8000CF5D0BB1534601097611447EA22A17DF152368E7DEB2C0FB8A5DC097BF21EF93FB
:205DA00085F2C652B3DF0BBDB7171053B4BFF2FD90C67CB96CEB6B1D9D0F27F585694955A9
:205DC00022B1F8B064C42B3517AA2FC7A26D47CB6BC307F9A435279987A9B5A3B816384E45
:205DE000CEBB3102C64299CB9A46A2C1BCA37B30C85C89C1614FB0EC8A5E28BA0F887D0195
:205E000071E1F9E73B440429293C5F5D9365DDE32E85DA5C8C76EC7E0A45786819DEBB1184
:205E2000C9A050DAAA93F48457609825F052582480448C8AAE2174FAF47ADCF6CB9B0F4BD1
:205E4000804D94F31503389A9055042CDEC78DB7EC53E7D4523163A72B55E62FB6FDB8BBC4
:205E6000504CA4A3BE650F7D0CF2F9581D481C2DED250A77B43BF94FEAEDC7BF1C09E393D1
:205E80009D48DB9122EAF986446AC85F370A8AE338B94291F34107155355B8D19E4F60020F
:205EA0000F66BBD46C8A0A022C833349729917DF62E38663C7519F5C40C63DCC3127E8F42C
:205EC00009C550D14FB576AEAE3F646F0DBDA3BA3ED96EBAC8FC3BBDC75F94A64C3DD0040C
:205EE0009B3E40AC494690AC6DD8B587ED2F4E8223838E58B92D2C0C8A930AF021CF617023
:205F00006E5FD4CF7DF671F748C14DF047B4CF97101183C9AE784B6D123322B53CA08B9D24
:205F20007644188D5B7F052C129710F7E03CC5D5C372DF0F4C98C1F61466BC4AD4BBBBA861
:205F400036AF79039C423C910C56B61767548DD66E4CF2C9C07B50DE822179F4C2BB5856CF
:205F6000DB67C130C2C23981364E03F5E1AA8FBFD9E6DB88C8F1E7BA5E9B807AC847CE50BF
:205F8000FE5F3BFF935C13AC12719372775BFCD892B91ADCDFCF8DEA8006D22741BFB8EE03
:205FA0007FB2F6826E8F2C7DD22F76575D7543039FA7E80F2DF2712FD1517F8D89EC6A5350
:205FC000B9A5F2C465796A028D9D09AF59368C0BC3CF879AD6A9C18D41C7B01C0F9FF3E680
:205FE000C5229EB8827E9E253CE58190E8C1D59BC474CABA64CF7C10E465839DC94EF3EE7A
:20600000A923EA3697D4884430625DF12731A47FF114579BD53981F5A68ED31DFA005BEE20
:20602000F293E6C5D79E03F0EC858902728AE8B3C003ACB4F657196FA2F49009006A4A302A
:20604000066EFF934ADFA8521167AF4FAF7F831BA5205DF654A7F89A7A7722E20EFAEF81C3
:206060003A59FB048B5469E15B59A38EA8C9C022717463DF0D53DC5E756419D3BCC64416CB
:20608000772E1556837F8F51B77C9BFB0469F2B0B6FF709A971073E77C9C8E273B95249520
:2060A000158C1779B4699FF2E4122891B8E15A0C71681CBC55A97F67BA2ED9E7F068162187
:2060C0005705E5775278FC4C607EB685E8E22E9B4281B5D27967406B0DB0BF8690B7017BB0
:2060E000FB0639B3FBE2B9F86CCF5BD7F3F97FD8FF3EA56EB244A8F0C57A6AA2B976BCA8B9
:206100007C3A89E1A87B9F5FC8BC65A90B69781330E786511292C9B75E49ED8178173FF6C2
:2061200012B35AB8709D2F849E45A6F5DEFEE45C015771D1EF6B96E971D1835E8D1EE7B056
:206140007D6F97580EC0A293B801B2CCEBD3D95F65917F20A66E06A71D71469F19D0F7800B
:206160005EF6786F678B4E41B4DD19EDB8C9FD9EF723F9FB9EC60A0E68EF3B9C79037AE71B
:206180000A326EF55A6AF8D9433E6CC85418EF5373A8A7F5D7FBE198EC6A067750B1C8B01A
:2061A0006332E3855A08438D2B20B8605941B95000E729D05C84100E51D509F064818992AD
:2061C00075BB64223469F96B6419CAB643803EAAB0B5766887F854DE22D43485FF5329A999
:2061E0009726EB9EDC961B97EEBE6B42BA59CBD0965E3FAE0A200A7D6686006034736B102E
:20620000F0201F1C95A0CD199ADF7AC98C1124C80863EEA0147A9F761C6D375696BB627AF4
:20622000525A529939AF3BF69026142AA641F155613857D185CBFC7681A80027687783DE7A
:206240007DFF7631BF8B8E5927F80FED6574D0DA7CE2F55E6391F5875EDC1891AE148D19E0
:20626000A236ADA7CAC095D5A9FDA98CBB0E100CD825AA8681257BEB09EFD3E373FDAA132A
:206280006AF64B2FC62810BC4C1FB465E868CC4FCB0BB8896907987DBAC29DDBECB262AB40
:2062A000529521C4C3E146AF15EE3961701503A0228317684521AA635ECD74048B34CF9953
:2062C000BD09135247078BE9C508747ACD360DA5BEFCB8699BFA6631EBBD66F56D4124E0A5
:2062E0001FA0A46601B0591BF82EA33DAD2F9627C0CE458E7C66FEC3A3E26789A0957C8364
:20630000E3935B2C91A6A30EA39D706C572983BB263E359EFC9564B8A1E1C31F49CF7A6282
:20632000B11F5919D46A96192A37EBDEF5916B795EAC626160DD874D2FA28AB0E284C4D3B4
:20634000230DBB37CF69E7BCA81B74C4AA85C3107549C19D6D1802D3980BEA31DFE637A66D
:206360007218BBE7D634AAF5C4A5B84469C2A3AADF7A3A99C227650A0BE79EC37FB5DDC2C1
:20638000E4CD5192CADB39409FCBD8C760BE6AD5683F5264AB9EE34AB2B1DCEF96E6750EE5
:2063A000C8F6609B7010DF0440F9F9F74F9EAA4D7DC85B3F63781746EA07E019FE4AAAB908
:2063C00055C9FF695DCE6457604E24B1A4ECFB13078F72CD8B36AB4FDF19B16930C605F69D
:2063E0004E40A1869F40EFAE6303DF155465A2FD0CCC116FD8DD2E1F1EAF8A441DFB2799ED
:20640000482D62644B7474C6A0C369875795FB7977B35D64B4961D71128167EFB5AA916891
:20642000DB45CD26023DB297574BCE1473A6C789B411CC699DC3E5B20FF151C90D8511F531
:206440003201AB11C8D4763901C60C69C709FE6BB9DE3AA4DE27CB18601A1611ECE889D260
:2064600039D9E272FAB5C0E09A9368D6B67BEB06F3E50F2E4A6C170A3692B1ADBD654D1841
:206480003D3A2FED278B71031D5A0A4ABFF462E42F101E06D85A87CDC1D73C6704132334ED
:2064A000454F997C4BFDDF67740C11F062CC4A4130CC7EAC474740E2B2622B4F4F09FF0AA6
:2064C00036D605705BE6983130B691CC49976BF58CFA37379476ECFE0EB7C9E9D190176B6C
:2064E0000C07B98CC7DAE64A334C7C90B573981BF736C255D1C775C0E90661A41CAF60A03D
:206500009F25C042DDDF2DB214ED0348FA5C489B1EADF29ACDC1994491F8A2C078422D847D
:20652000ECDBF190B3553E17081040E4C42CC68DBEC6856FBCC5D3DD8B7BB0E43C6D3AD23F
:20654000BF7F5C1E6BB8E7C96FDA92BD81B58065321502B2BCBDC72608130438A459DB9BD2
:20656000D66E2444D0A82205DEBB00E133155CD6FA4BB2266A881502B7351657B4AF2415C1
:20658000FFF6E713903C9489F3FDD301BDE5F3F2B72E3D59A6B4314D58228C9B91CA512F09
:2065A00097EBE23C2E4945BEB728336DB41445D14124A08571CB6E4AC599BA6DAFF8F82999
:2065C000ABA369D103B6C36DE87EA17E81C39943DDBA5A6D29CBBDCC7C9777958ED80FBE78
:2065E000300AC110AB73CE8A60329DF229F0C901007690F49E8AFFE0E69C556B3F2EDF1077
:206600006FE34D770288986AECCF0DF72DCAA38CCE769517471B1FA60AE12A0E1E634B32BB
:20662000538D8345A251FF77DE2508CF7C08B21BF9C89CC998C7C854C4A76C205D894C89CB
:2066400084DAA3A0475EE97D771D3921125029022F0F1555C681998CC42E81FBE4DE1A5461
:20666000D97F4AA16411D49ADE1F527A8DA641747D6AF14E74F6C2024017DB18DDEE9898AA
:2066800003E5489305879D1D3B7A76A72F1FFE1EED0C7E7AECCBDFE2BC48604D36BBBDF0FD
:2066A00087B977A75EAD6FF5CCD413F97F1BD22118BD2BD06F1DAC370565D7BC2650E77FBC
:2066C000BD861F76A756BF3F9D88AE17B8E663A1753F34788FED80690C3FA1F9D6B2CE7CDF
:2066E000ED933CF9FB5C79C1FDEC32E76F947E1F023546E71B6EF0CF05B66968B5C668EBAC
:20670000B9322A25AA69A519C5737AA3BB99FA78C182F6A06BE7607EA26CF445F2110C36BE
:2067200083462D3D69587598902C22A8F34C146CBBF1A632CFC87FD2D1AC823E756027B3BB
:2067400066441F746CBD0E680C5D103EC5B88A55578889006BD966BBC65A6BBDD5372330D6
:20676000056E42AF2DA0FFFEE33E2572B7400D19212DE6ECD626488CDD63AD11515092D520
:206780003AE0395675DB28B6888B1D2CB3F403864D529CA8503659DE26B5D2C9F3EEAC9261
:2067A000AB5037D707B7A346042F644A091BD8E85F27C3FFB4E98503865B30C0085FC39963
:2067C000DF8A8163BC2C7E96AE55A420D20FD40ADCEA69CB2AACDEC1CA3450AC87E33EA534
:2067E0006BCA6B7F9A752B33A82D515F456431778625E31EF5F86F32ACBF9888DBD20FCBEB
:2068000017FEB407A3556F67BE3623FC5B7E7C6503D92661FF1FAF735B39D2DBDCA357D67D
:206820001E864746B029D430B57C5FBFD472D62D43328402ACADCBF74F40AB6983948A1B3D
:20684000DE4DDED53735B5D905F6AC83C0F09EE963A597A91E552A70BA50F76F7E6AAC2086
:20686000F144E0879300F60E7DAAFCB50148375EA1C106DEFCE0FC88226D1AE63D455B9A83
:20688000498B917B0F165662AE892C7358746F721898CDBC63CE241047586426E60FD037F5
:2068A0004F616C76B6BB4F8A6BA42F72B4892FAEFEA8CEA5789F377A668034B7B2307C9F83
:2068C000B9F424F607F9BB5C494250BF9EB15BBD28B6273D412ABFB02AF10F358697D83B2E
:2068E0002890B8C06439A704EC715B354E78DBB524768FFB083E5E8E3574CC15EA85D5B207
:206900006914960EF89B59EF0F2351CFCF8961B21559111007DD33E9322A8AF06C911A66DC
