:1000000042C0AEC15BC05AC059C058C057C056C0EC
:1000100055C054C053C052C051C050C04FC04EC054
:100020004DC04CC04BC04AC049C048C047C046C084
:1000300045C044C0090212000101008019090400F2
:1000400000000000000012011001FF000008C016AF
:10005000DC050401010200010E03550053004200BB
:100060006100730070001C037700770077002E009A
:10007000660069007300630068006C002E00640075
:1000800065000403090411241FBECFEFD2E0DEBFD8
:10009000CDBF11E0A0E0B1E0E8E0F2E102C00590E0
:1000A0000D92A230B107D9F711E0A2E0B1E001C092
:1000B0001D92AA34B107E1F794D8A4C8A1CFCF9379
:1000C000DF9360912801635067FD14C020912501E2
:1000D0008CE090E0821B9109EC01C45DDE4F209121
:1000E00024012D3209F45EC08091020187FD81C098
:1000F000109228018091000184FF47C060910101A6
:100100006F3F09F442C0693058F1685060930101B3
:100110008091180198E889278093180168E0209160
:10012000020127FD84C0809126019091270126FFBE
:100130006AC0FC01262FA9E1B1E034913D933196CC
:100140002150D9F7262F215030E02F5F3F4F280F45
:10015000391F3093270120932601C62FCC5F0BC097
:10016000109201018091180198E889278093180165
:100170006623A9F6C4E089E191E0EED0CC3019F015
:100180008FEF80930101C093000194E183B18370EC
:1001900031F49150D9F71092290110922301DF9187
:1001A000CF910895683009F0A3CF23EC2093180174
:1001B0002AE520930001109202012881207661F542
:1001C0003A811092210129812223E9F5109222011E
:1001D00021E231E082E030932701209326019F81C4
:1001E000992321F49E81981708F4892F80930101A7
:1001F0007FCFCE0129D78F3FA9F1882309F478CF8B
:100200001092010175CFDC01262FE9E1F1E03D916B
:1002100031932150E1F796CFCE01DCD48F3FF9F630
:10022000988197FD29C090E890930201DFCF89E182
:1002300091E093D6682F893008F467C08FEF8093E0
:100240000101CEE1A0CF253089F02630B9F0283069
:1002500091F12930A1F12A3009F447C021E231E0BF
:1002600080E0B9CF8EE18093000142CF3093290125
:1002700021E231E080E0AFCF8E81D5CFFC01E25D9D
:10028000FE4F2081815D9E4FFC018081813029F1EC
:100290008230D9F0833029F080E090E4909302011D
:1002A0009ECF222331F582E890E09093270180933E
:1002B000260184E0F2CF2BE231E081E08CCF309355
:1002C0002B0121E231E080E086CF84E390E090933F
:1002D00027018093260182E1E0CF86E490E09093AD
:1002E00027018093260182E1D8CF21E231E081E02D
:1002F00072CF213069F0223079F688E590E0909352
:100300002701809326018EE0C8CFC82FCC5F33CF62
:1003100086E690E090932701809326018CE1BDCF83
:10032000E9E6F0E0808183608083E89A0895A82F51
:10033000B92F80E090E041E050EA609530E009C0DC
:100340002D9182279795879510F084279527305E09
:10035000C8F36F5FA8F30895EADF8D939D93089526
:10036000CF93CFB7CF93C395189BE9F7189B09C0DC
:10037000189B07C0189B05C0189B03C0189B01C0A1
:10038000A1C0DF93C0912501DD27C45DDE4F189B1E
:1003900002C0DF91EBCF2F930F931F9303B12FEF89
:1003A00000FB20F94F933F9313B14FEF012700FB60
:1003B00021F93BE031C04E7F012F13B1216028C0ED
:1003C000102F4D7F2260000003B129C04B7F2460B5
:1003D000012F000013B12BC013B1477F28602AC042
:1003E0004F7E03B120612CC04F7D13B120622FC01E
:1003F0004F7B03B1206432C0422703B149934FEFD2
:100400000000102710FB20F913B11370C9F1297FE8
:1004100091F2012700FB21F903B1237F89F23150CA
:1004200058F1102710FB22F913B1277E79F201272A
:1004300000FB23F92F7C81F203B1102710FB24F974
:100440002F7971F200C013B1012700FB25F92F733A
:1004500059F200C003B1102710FB26F9223040F2F8
:1004600000C013B1012700FB27F9243028F64F778D
:10047000206813B10000F9CF11E01CBB002717C0A2
:100480003B503195C31BD04011E01CBB0881033C9D
:10049000E9F00B34D9F0209123011981110F1213C7
:1004A000EDCF093641F10D3211F0013E39F70093DD
:1004B0002A013F914F911F910F912F91DF91CCB362
:1004C000C0FD51CFCF91CFBFCF91189520912A0178
:1004D000222379F310912801112311F5343012F100
:1004E0003093280120932401109125013BE0311B1A
:1004F0003093250117C00091280101308CF40AE5E2
:100500003091000134FD10C000930001C8E1D1E03A
:100510000FC02795A8F45150A9F4220F0000F9CF7D
:100520004AE503C042ED01C0432FC4E1D0E032E010
:1005300014B11360289A14B905B120E413E05F9355
:10054000012756E005B9279520F4515021F4220FD8
:10055000F9CF012756E000003B5A05B9D0F22795A4
:1005600028F4515029F4220F0000F9CF012756E05A
:10057000279505B920F4515021F4220FF9CF012716
:1005800056E02991332305B921F60C7F10912901FA
:10059000110FC651D04005B911F01093230111E09D
:1005A0001CBB016014B11C7F402F4C7F5F9100C0C9
:1005B00000C005B914B945B97CCF582F48E080E098
:1005C0002091470157FD14C02B98550F880F1C9997
:1005D0008F5F2D9A36B596B5931B9217E0F32D9841
:1005E00036B596B5931B9217E0F3415059F708952D
:1005F0002B9AEBCF8EBD0DB407FEFDCF8EB50895BF
:10060000DC01CB0121E1B695A795979587952A95B1
:10061000D1F7209146012817D9F080934601E09147
:100620004301F09144018DE40995E0914301F0917B
:10063000440180E00995E0914301F09144018091EB
:1006400046010995E0914301F091440180E009954C
:100650000895809145018CBD809142018DBD089522
:100660008823B1F08830E0F52DED32E0309344017D
:1006700020934301843021F18530D0F0863029F178
:10068000863030F18730C1F483E0809347010895CC
:100690008AEF92E0909344018093430181E080933C
:1006A000470182E58093450181E0809342010895EE
:1006B000823091F0833041F080EC809347010895BF
:1006C00088E180934701089580E38093470108956E
:1006D0008CE080934701089580E680934701089558
:1006E0002AEF32E0309344012093430110924201FB
:1006F00091E090934701893041F08A3050F488307E
:1007000081F683E580934501089582E58093450154
:1007100008958B3021F08C3021F69093420181E5D1
:1007200080934501089526B59091470186B5821BB7
:100730008917E0F3089584B18C6284B92A982D98C2
:1007400026B59091470186B5821B8917E0F32A9A56
:1007500026B586B5821B8917E0F32A98809143015C
:100760009091440122E08A3F920719F010924601CD
:100770000895809145018CBD809142018DBD1092FC
:100780004601089584B1837D84B985B1837D85B99F
:100790001CBC0895CF93DF93C0E2E0914301F09138
:1007A00044018CEA0995E0914301F091440183E50D
:1007B0000995E0914301F091440180E00995D82F1B
:1007C000E0914301F091440180E00995D33549F16E
:1007D0001CBC26B59091470186B5821B8917E0F3B2
:1007E0002A9A26B586B5821B8917E0F32A9826B582
:1007F00086B5821B8917E0F3E0914301F091440133
:1008000082E0EA3FF80731F0C15059F681E0DF910C
:10081000CF910895809145018CBD809142018DBD9D
:10082000F3CF80E0DF91CF910895CF92DF92EF92E6
:10083000FF926B017C01E4DE8C2D8170880F880FA4
:10084000880FE0914301F091440180620995D7013E
:10085000C60139E0B695A795979587953A95D1F752
:10086000E0914301F09144010995D701C601B69585
:10087000A79597958795E0914301F09144010995DB
:10088000E0914301F091440180E00995FF90EF90E1
:10089000DF90CF900895CF92DF92EF92FF920F9367
:1008A0001F93CF93DF930F92CDB7DEB76B017C011F
:1008B000142F2983A5DE8C2D8170880F880F880F57
:1008C000E0914301F091440180640995D701C6018C
:1008D00059E0B695A795979587955A95D1F7E091E8
:1008E0004301F09144010995D701C601B695A7953A
:1008F00097958795E0914301F09144010995E09126
:100900004301F0914401812F09952981222399F017
:100910001F37E1F006B51EE1C701B60186DF8F374C
:1009200051F486B5801B8D3310F006B5115011239C
:1009300099F781E001C080E00F90DF91CF911F9186
:100940000F91FF90EF90DF90CF9008958FE0ABD0A4
:1009500080E0F2CFCF92DF92EF92FF920F931F933E
:10096000CF93DF930F92CDB7DEB76B017C01498344
:1009700047DEE0914301F09144018CE40995D701F1
:10098000C60129E0B695A795979587952A95D1F741
:10099000E0914301F09144010995D701C601B69554
:1009A000A79597958795E0914301F09144010995AA
:1009B000E0914301F091440180E0099549814F3F66
:1009C000E1F006B51EE1C701B6012FDF8F3F99F4B4
:1009D00086B5801B8D3310F006B51150112399F7A1
:1009E00081E00F90DF91CF911F910F91FF90EF90D9
:1009F000DF90CF90089580E0F4CF8FE054D080E076
:100A0000F0CF1F93CF93DF930F92CDB7DEB7182FA0
:100A1000E0914301F091440180EA99830995E091C6
:100A20004301F09144019981892F0995E091430197
:100A3000F0914401812F0995E0914301F091440127
:100A400080E009950F90DF91CF911F9108951F933A
:100A5000CF93DF9300D0CDB7DEB7182FE0914301DD
:100A6000F091440180EC6A8399830995E0914301F8
:100A7000F09144019981892F0995E0914301F0910A
:100A80004401812F0995E0914301F09144016A816D
:100A9000862F09958EE107D080E00F900F90DF91AF
:100AA000CF911F910895882349F030E026B596B57F
:100AB000921B9C33E0F33F5F3817C1F70895259AE6
:100AC00023982B9A50E217D05A95E9F70895AC0174
:100AD00088E605D0842F03D089E601D0852F0FD07A
:100AE00028E030E0382780FB869506D02A95D1F79C
:100AF00030FB02D000D0689423982B9A16F02B98E4
:100B0000239AE0914801F09149013197F0F72D9A2D
:100B1000E3B1E3FBE0914801F09149013197F0F72F
:100B20002D98089520ECE7DF46F42A95E1F780E060
:100B30002AE1E5DF2A95E9F7DECF28E030E0DBDFC8
:100B4000869587F938272A95D1F7D5DF27F93227F7
:100B500072F3D1DFD0CFDB01742FB9DF84E2BFDFC6
:100B6000E1DF8D937A95D1F70895DB01742FAFDF24
:100B700083EFB5DF8DE1B3DF84E6B1DF8D91AFDFC9
:100B800082E7ADDFCFDF8078D9F77A9589F70895CE
:100B9000F9DD419A32990AC085E062DD10920401C4
:100BA0004198C9DDF7DD813059F008958091030146
:100BB00057DD109204014198BEDDECDD8130A9F7CC
:100BC000E1DD419A85E04CDD109204014198B3DDEE
:100BD000E1DD0895CF93DF93EC018981813089F1C4
:100BE000823009F4B0C0833009F463C08430A1F1CD
:100BF000873009F483C0853009F412C1863009F4C6
:100C0000A6C0883009F4E1C0893009F40EC18A30E9
:100C100009F43DC18B3009F46DC18C3009F47FC1FA
:100C20008D3009F491C18E3009F493C18F3009F4ED
:100C30000DC1803109F432C18F3709F450C180E011
:100C40002FC0329B58C0809103010ADD109204012D
:100C5000419871DD80E024C080910401882391F4E3
:100C60003B8120E08A8190E0822B932BAA2797FD7D
:100C7000A095BA2F80930D0190930E01A0930F01C0
:100C8000B09310013F8120E08E8190E0822B932B66
:100C9000909312018093110182E0809313018FEFF2
:100CA00025E031E03093270120932601DF91CF9199
:100CB0000895E0914301F09144018A810995809360
:100CC0000501E0914301F09144018B8109958093E6
:100CD0000601E0914301F09144018C8109958093D4
:100CE0000701E0914301F09144018D8109958093C2
:100CF000080184E0D5CF85E0B3DCA8CF8091040162
:100D0000882391F43B8120E08A8190E0822B932B11
:100D1000AA2797FDA095BA2F80930D0190930E01FD
:100D2000A0930F01B09310013F8120E08E8190E0ED
:100D3000822B932B909312018093110183E0809377
:100D400013018FEFADCF1EDD419A80E0A9CF8091D6
:100D50000401882391F43B8120E08A8190E0822B7A
:100D6000932BAA2797FDA095BA2F80930D019093FE
:100D70000E01A0930F01B09310013C818D81282FAB
:100D80002F702093160190E0807F9070829592954D
:100D9000907F9827807F9827830F911D909315014E
:100DA0008093140120FF02C0809317013F8120E04F
:100DB0008E8190E0822B932B9093120180931101EE
:100DC00081E0809313018FEF6BCF80910401882322
:100DD00091F43B8120E08A8190E0822B932BAA271B
:100DE00097FDA095BA2F80930D0190930E01A093CB
:100DF0000F01B0931001109215011092140110927E
:100E000016013F8120E08E8190E0822B932B9093FE
:100E100012018093110184E0809313018FEF40CF82
:100E2000B7DE8093050181E03BCF81E08093040130
:100E30008A819B81AC81BD8180930D0190930E01CD
:100E4000A0930F01B093100180E02ACF3B8120E0F6
:100E50008A8190E0822B932BAA2797FDA095BA2F29
:100E600080930D0190930E01A0930F01B093100198
:100E70003F8120E08E8190E0822B932B9093120192
:100E80008093110185E0809313018FEF09CF8A8150
:100E9000809303011092050181E002CF3B8120E0A5
:100EA0008A8190E0822B932BAA2797FDA095BA2FD9
:100EB00080930D0190930E01A0930F01B093100148
:100EC0003F8120E08E8190E0822B932B9093120142
:100ED0008093110186E0809313018FEFE1CE81E0D2
:100EE00080930501109206011092070110920801EB
:100EF00084E0D6CE3B8120E08A8190E0822B932B48
:100F000090934901809348012A9A229A83E0CBDD8D
:100F10002A98419880E1C7DDD2DD80E0C1CE80EC27
:100F2000DEDD80E0DCDD8AE0BEDD2A9A85E0BBDD27
:100F30002A9885E0B8DD84B1837D84B985B1837D4D
:100F400085B9419A80E0ACCEEDDD8093050181E06A
:100F5000A7CE8A81C4DD80E0A3CEEF92FF920F93EB
:100F60001F93CF93DF93482F792FF62E8091130193
:100F7000982F9250923068F0853009F449C0FF24D0
:100F8000FA948F2DDF91CF911F910F91FF90EF90E9
:100F90000895662399F100910D0110910E012091A1
:100FA0000F0130911001C42FD72FEE241DC0C801AE
:100FB00028DD888300910D0110910E0120910F0111
:100FC000309110010F5F1F4F2F4F3F4F00930D01C6
:100FD00010930E0120930F0130931001E39421969A
:100FE000EF1449F080911301823009F7C901B8016B
:100FF0001CDC8883DFCF87E08F1518F21092130175
:101000008F2DDF91CF911F910F91FF90EF90089559
:1010100080910D0190910E01642F4F2D9CDD8091E8
:101020000D0190910E01A0910F01B09110018F0D53
:10103000911DA11DB11D80930D0190930E01A093F0
:101040000F01B09310019DCFFF920F931F93CF9389
:10105000DF93282F792FD62F30911301313071F083
:10106000343061F0363009F48EC0FF24FA948F2DAD
:10107000DF91CF911F910F91FF900895DD2309F427
:10108000AEC080910D0190910E01A0910F01B09121
:101090001001022F172FC0E0FF2451C0209114012E
:1010A00030911501BC01CD01F801408121153105B8
:1010B00009F04FC021E0EFDB809111019091120106
:1010C000019790931201809311010097E9F4109217
:1010D00013018091160181FF39C02091170130E082
:1010E00080911401909115012817390779F16091C9
:1010F0000D0170910E0180910F0190911001F80186
:10110000408128DCFF24F39480910D0190910E0121
:10111000A0910F01B09110010196A11DB11D809306
:101120000D0190930E01A0930F01B0931001CF5FBA
:101130000F5F1F4FCD1709F49ACF30911301313053
:1011400009F4ACCFF801608182DCB6CFFF24F394C0
:10115000DBCF20E0A0DB8091170181508093170145
:10116000882309F0A9CF60910D0170910E01809143
:101170000F0190911001F8014081ECDB8091140186
:101180008093170199CF80910D0190910E01622FEC
:101190004D2FEBDC80910D0190910E01A0910F017C
:1011A000B09110018D0F911DA11DB11D80930D01F6
:1011B00090930E01A0930F01B09310018091110143
:1011C000909112018D1B910990931201809311014E
:1011D000009729F410921301FF24F39448CFFF24C1
:1011E00046CF1BB815B88BEF8AB98FEF84B914B806
:1011F00083E087B99EEF98B985BD92D878945FD780
:081200005ED7FDCFF894FFCF8B
:021208005AFF8B
:00000001FF
