:100000003BC0D1C654C053C052C051C050C04FC0F5
:100010004EC04DC04CC04BC04AC049C048C047C08C
:1000200046C045C044C0040309041C0377007700A0
:1000300077002E00660069007300630068006C00A2
:100040002E00640065000E0355005300420061005D
:100050007300700012011001FF000008C016DC05DB
:1000600004010102000109021200010100801909C6
:10007000040000000000000011241FBECFE5D4E002
:10008000DEBFCDBF10E0A0E6B0E0E6EDF0E102C0DB
:1000900005900D92A236B107D9F710E0A2E6B0E0C4
:1000A00001C01D92AA3AB107E1F702D012C8A8CF49
:1000B00012BA18BA8BEF81BB8FEF87BB17BA93E0E8
:1000C00094BB8EEF85BB93BF39D578943ED5FECFD8
:1000D000FF920F931F93CF93DF93282F792FF62E44
:1000E00080916200813011F0843039F4822F972F93
:1000F0009C01E90110E000E0A5C0863011F01FEF7F
:10010000A4C080916F0090917000622F4F2DCED7C8
:1001100080916F0090917000A0917100B091720079
:100120008F0D911DA11DB11D80936F0090937000E4
:10013000A0937100B093720080916300909164006D
:100140008F1991099093640080936300892B11F0BB
:1001500010E07BC01092620011E077C080916200D5
:10016000813079F5809173009091740020916F0037
:10017000309170004091710050917200892B31F4E0
:10018000CA01B901488121E085D421C0CA01B90161
:10019000488120E07FD48091760081508093760062
:1001A0008823A9F460916F007091700080917100B4
:1001B00090917200488122D48091730080937600E0
:1001C00006C080916F00909170006881F3D3809198
:1001D00063009091640001979093640080936300A2
:1001E000892BD9F4109262008091750081FF14C0B0
:1001F0008091760090E02091730030917400821716
:10020000930751F060916F007091700080917100C0
:10021000909172004881F2D311E080916F0090912B
:100220007000A0917100B09172000196A11DB11DE6
:1002300080936F0090937000A0937100B093720050
:100240000F5F21960F1508F489CF812FDF91CF9191
:100250001F910F91FF9008950F931F93CF93DF93FA
:10026000282F792F062F90916200892F825082309B
:1002700020F0953051F00FEF53C0953031F0822FC0
:10028000972F9C01E90110E045C080916F0090918B
:100290007000622F402F00D780916F009091700006
:1002A000A0917100B0917200800F911DA11DB11D30
:1002B00080936F0090937000A0937100B0937200D0
:1002C0002FC080916200823051F460916F00709174
:1002D0007000809171009091720019D305C08091D7
:1002E0006F009091700048D3888380916F00909147
:1002F0007000A0917100B09172000196A11DB11D16
:1003000080936F0090937000A0937100B09372007F
:100310001F5F21961017A8F2083010F410926200A7
:10032000802FDF91CF911F910F91089551D2A99AFB
:100330009A9902C085E002C080916500C6D11092F2
:100340006600A99822D271D2813049F441D2A99A8B
:1003500085E0BBD110926600A99817D266D20895A5
:10036000CF93DF93EC018981813061F49A9902C0C7
:1003700085E002C080916500A8D110926600A9981E
:1003800004D204C0823021F423D2A99A20E080C193
:10039000833009F5E0917800F09179008A81099520
:1003A00080936700E0917800F09179008B81099546
:1003B00080936800E0917800F09179008C81099534
:1003C00080936900E0917800F09179008D81099522
:1003D00080936A005CC1843011F5809166008823A7
:1003E00091F49B8180E02A8130E0822B932BAA2715
:1003F00097FDA095BA2F80936F0090937000A09303
:100400007100B09372009F8180E02E8130E0822BDA
:10041000932B909364008093630082E028C187301F
:1004200011F580916600882391F49B8180E02A81F8
:1004300030E0822B932BAA2797FDA095BA2F8093AB
:100440006F0090937000A0937100B09372009F8131
:1004500080E02E8130E0822B932B90936400809378
:10046000630083E004C1853011F460DFB8C08630DA
:1004700009F043C080916600882391F49B8180E05D
:100480002A8130E0822B932BAA2797FDA095BA2FC3
:1004900080936F0090937000A0937100B0937200EE
:1004A0008C8180937300109274008D81282F2F709F
:1004B00020937500482F50E0407F507084E0440F37
:1004C000551F8A95E1F78091730090917400480F51
:1004D000591F509374004093730020FF02C0409353
:1004E00076009F8180E02E8130E0822B932B9093C9
:1004F00064008093630081E0BAC0883041F5809148
:100500006600882391F49B8180E02A8130E0822B71
:10051000932BAA2797FDA095BA2F80936F009093F5
:100520007000A0937100B09372001092740010924A
:100530007300109275009F8180E02E8130E0822B45
:10054000932B909364008093630084E090C0893083
:1005500081F481E0809366008A819B81AC81BD81BA
:1005600080936F0090937000A0937100B09372001D
:100570000DCF8A3031F48A81809365001092670034
:1005800030C08B30A1F49B8180E02A8130E0822B47
:10059000932B9093A9008093A800C29ABA9A83E003
:1005A00081D0C298A99880E17DD02AD5EFCE8C3039
:1005B00099F480EC35D580E033D58AE073D0C29AC7
:1005C00085E070D0C29885E06DD087B3837D87BB0E
:1005D00088B3837D88BBD9CE8D3029F444D58093F0
:1005E000670021E055C08E3019F48A8119D5CECE2E
:1005F0008F30F1F49B8180E02A8130E0822B932BB5
:10060000AA2797FDA095BA2F80936F009093700052
:10061000A0937100B09372009F8180E02E8130E042
:10062000822B932B909364008093630085E01FC01E
:10063000803109F59B8180E02A8130E0822B932B69
:10064000AA2797FDA095BA2F80936F009093700012
:10065000A0937100B09372009F8180E02E8130E002
:10066000822B932B909364008093630086E08093A9
:1006700062002FEF0DC08F3709F088CE81E08093A4
:100680006700109268001092690010926A0024E0DE
:1006900087E690E090938D0080938C00822FDF910D
:1006A000CF910895382F90E006C022B782B7821B01
:1006B0008C33E0F39F5F9317C0F3089580917B0024
:1006C0008DB980917A008EB90895282F882311F46E
:1006D0002AE002C0883038F180E194E090937900FC
:1006E0008093780010927A0081E080937D00293019
:1006F000A1F02A3018F4283049F411C02B3021F031
:100700002C3021F480937A0081E50AC082E5809341
:100710007B0081E080937A00089582E501C083E543
:1007200080937B00089580EF93E09093790080930D
:1007300078002430B1F0253038F42230B1F0233085
:1007400090F42130C9F415C0263031F0263038F04D
:10075000273091F483E00AC020937D0008958CE057
:1007600005C088E103C080E301C080E680937D007E
:10077000089580EC80937D00089522B790917D00CC
:1007800082B7821B8917E0F3089587B38C6287BB19
:10079000C298C59892B720917D0082B7891B8217B5
:1007A000E0F3C29A92B782B7891B8217E0F3C2982E
:1007B00080917800909179008051944031F480913B
:1007C0007B008DB980917A008EB910927C000895DB
:1007D00087B3837D87BB88B3837D88BB1DB80895AD
:1007E000482F50917D0020E030E047FF02C0C39ABF
:1007F00001C0C398220FB4992F5FC59A92B782B7F0
:10080000891B8517E0F3C59892B782B7891B8517B6
:10081000E0F33F5F383011F0440FE7CF822F0895A7
:100820008FB9779BFECF8FB108950F931F9300E28E
:100830003EC0E0917800F09179008CEA0995E09152
:100840007800F091790083E50995E0917800F091C6
:10085000790080E00995182FE0917800F0917900F7
:1008600080E00995133511F480E025C01DB822B74A
:1008700090917D0082B7821B8917E0F3C29A22B75C
:1008800082B7821B8917E0F3C29822B782B7821B16
:100890008917E0F38091780090917900805194401D
:1008A00031F480917B008DB980917A008EB901502E
:1008B00008F0BFCF81E01F910F9108959B01AC011B
:1008C00081E156954795379527958A95D1F780917F
:1008D0007C008217D9F020937C00E0917800F091A1
:1008E00079008DE40995E0917800F091790080E03D
:1008F0000995E0917800F091790080917C0009954C
:10090000E0917800F091790080E009950895EF92E8
:10091000FF920F931F937B018C01D0DF8E2D81708E
:10092000880F880F880FE0917800F091790080623D
:100930000995D801C70129E0B695A79597958795A0
:100940002A95D1F7E0917800F091790009951695F4
:100950000795F794E794E0917800F09179008E2D57
:100960000995E0917800F091790080E009951F9158
:100970000F91FF90EF9008950F931F938C01E091DA
:100980007800F091790080EA0995E0917800F09183
:100990007900812F0995E0917800F0917900802FFE
:1009A0000995E0917800F091790080E009951F9118
:1009B0000F910895FF920F931F938C01F62EE091F3
:1009C0007800F091790080EC0995E0917800F09141
:1009D0007900812F0995E0917800F0917900802FBE
:1009E0000995E0917800F09179008F2D09958EE1BD
:1009F00059DE80E01F910F91FF900895CF92DF9212
:100A0000EF92FF920F931F936B017C01142F56DF1F
:100A1000E0917800F09179008CE40995D701C60146
:100A200049E0B695A795979587954A95D1F7E091B6
:100A30007800F09179000995D701C601B695A79580
:100A400097958795E0917800F09179000995E0916C
:100A50007800F091790080E009951F3F19F48FE04C
:100A600021DE07C002B71EE1C701B60150DF8F3F8C
:100A700011F080E008C082B7801B8D33A8F302B765
:100A8000115091F781E01F910F91FF90EF90DF904F
:100A9000CF900895CF92DF92EF92FF920F931F9322
:100AA0006B017C01042F122F09DF8C2D8170880FC0
:100AB000880F880FE0917800F091790080640995A3
:100AC000D701C60169E0B695A795979587956A9570
:100AD000D1F7E0917800F09179000995D701C6012E
:100AE000B695A79597958795E0917800F091790054
:100AF0000995E0917800F0917900802F09951123F4
:100B0000A9F00F3719F48FE0CDDD10C002B71EE158
:100B1000C701B601FCDE8F3749F482B7801B8D33E5
:100B2000B8F302B71150A1F781E001C080E01F9136
:100B30000F91FF90EF90DF90CF90089585B783607D
:100B400085BF8BB780648BBF08951F93CF93DF93CE
:100B500060918E00635067FDA3C080918B00CCE054
:100B6000D0E0C81BD109CE56DF4F80918A008D326C
:100B700009F084C0683009F091C083EC80937E0056
:100B80008AE580936000109277008881807639F042
:100B9000CE01E6DB282F8F3F09F45FC065C09A8144
:100BA000109287008981882321F41092880022E026
:100BB0004DC0853019F490938F0047C08630B1F551
:100BC0008B81813019F484E590E004C0823041F4D7
:100BD00086E690E090938D0080938C0022E122C005
:100BE0008330F9F48A81882341F486E290E090937F
:100BF0008D0080938C0024E015C0813041F48AE29E
:100C000090E090938D0080938C002CE10BC082309B
:100C100041F486E490E090938D0080938C002EE068
:100C200001C020E080E4809377001EC0883021F46A
:100C300021E081E990E00CC0893019F49093910093
:100C400004C08A3011F421E001C020E087E890E080
:100C500090938D0080938C0007C0888187FD2E8142
:100C600080E88093770006C08F81882319F48E81F5
:100C7000821708F0822F8093610010C08091770066
:100C800087FF0CC0CE0124DA8F3F21F48EE18093E0
:100C9000600004C0882311F01092610010928E0051
:100CA0008091600084FF58C0809161008F3F09F4FB
:100CB00053C0182F893008F018E0811B8093610021
:100CC00080917E0098E8892780937E00112391F11E
:100CD0008091770087FF08C08FE790E0612FBCDA32
:100CE000182F893098F526C020918C0030918D0006
:100CF00086FF0DC0AFE7B0E080E090E0F901E80FBB
:100D0000F91FE491ED9301961817C1F708C0912FD0
:100D1000D901EFE7F0E08D9181939150E1F7115007
:100D2000812F90E01F5F0196820F931F90938D009B
:100D300080938C008FE790E0612F31D0612F6C5F42
:100D40006C3041F08FEF8093610004C08FEF80938F
:100D500061006EE16093600094E186B3837031F4CA
:100D60009150D9F710928F0010928900DF91CF91A6
:100D70001F910895A82FB92F80E090E041E050EA3C
:100D8000609530E009C02D9182279795879510F0E6
:100D900084279527305EC8F36F5FA8F30895EADFD4
:100DA0008D939D930895CF93CFB7CF93C395B09B69
:100DB000E9F7B09B09C0B09B07C0B09B05C0B09BD2
:100DC00003C0B09B01C0A1C0DF93C0918B00DD27A1
:100DD000CE56DF4FB09B02C0DF91EBCF2F930F9326
:100DE0001F9306B32FEF00FB20F94F933F9316B3E9
:100DF0004FEF012700FB21F93BE031C04E7F012F6F
:100E000016B3216028C0102F4D7F2260000006B36A
:100E100029C04B7F2460012F000016B32BC016B3EE
:100E2000477F28602AC04F7E06B320612CC04F7DCB
:100E300016B320622FC04F7B06B3206432C0422716
:100E400006B349934FEF0000102710FB20F916B3AB
:100E50001370C9F1297F91F2012700FB21F906B334
:100E6000237F89F2315058F1102710FB22F916B375
:100E7000277E79F2012700FB23F92F7C81F206B34C
:100E8000102710FB24F92F7971F200C016B3012747
:100E900000FB25F92F7359F200C006B3102710FB91
:100EA00026F9223040F200C016B3012700FB27F9D3
:100EB000243028F64F77206816B30000F9CF10E4ED
:100EC0001ABF002717C03B503195C31BD04010E418
:100ED0001ABF0881033CE9F00B34D9F02091890056
:100EE0001981110F1213EDCF093641F10D3211F0B6
:100EF000013E39F7009390003F914F911F910F9160
:100F00002F91DF91CAB7C6FD51CFCF91CFBFCF91FF
:100F1000189520919000222379F310918E001123CF
:100F200011F5343012F130938E0020938A00109125
:100F30008B003BE0311B30938B0017C000918E007B
:100F400001308CF40AE53091600034FD10C000934C
:100F50006000CEE7D0E00FC02795A8F45150A9F467
:100F6000220F0000F9CF4AE503C042ED01C0432F34
:100F7000C4E1D0E032E017B31360C09A17BB08B3E6
:100F800020E413E05F93012756E008BB279520F487
:100F9000515021F4220FF9CF012756E000003B5AAF
:100FA00008BBD0F2279528F4515029F4220F0000F5
:100FB000F9CF012756E0279508BB20F4515021F4C2
:100FC000220FF9CF012756E02991332308BB21F6E0
:100FD0000C7F10918F00110FC651D04008BB11F04B
:100FE0001093890010E41ABF016017B31C7F402FD3
:100FF0004C7F5F9100C000C008BB17BB48BB7CCFD3
:10100000BD9ABB98C39A50E217D05A95E9F7089554
:10101000AC0188E605D0842F03D089E601D0852F66
:101020000FD028E030E0382780FB869506D02A953F
:10103000D1F730FB02D000D06894BB98C39A16F069
:10104000C398BB9AE091A800F091A9003197F0F7FE
:10105000C59AE6B3E3FBE091A800F091A9003197AF
:10106000F0F7C598089520ECE7DF46F42A95E1F7FC
:1010700080E02AE1E5DF2A95E9F7DECF28E030E0DD
:10108000DBDF869587F938272A95D1F7D5DF27F951
:10109000322772F3D1DFD0CFDB01742FB9DF84E2C6
:1010A000BFDFE1DF8D937A95D1F70895DB01742FCF
:1010B000AFDF83EFB5DF8DE1B3DF84E6B1DF8D9184
:1010C000AFDF82E7ADDFCFDF8078D9F77A9589F798
:0610D0000895F894FFCF23
:0210D6005AFFBF
:00000001FF
